:1000000071C0000079C0000077C0000075C000001A
:1000100073C0000071C000006FC000006DC0000020
:100020006BC0000069C0000067C0000065C0000030
:1000300063C0000061C000005FC000005DC0000040
:100040005BC0000059C0000057C0000055C0000050
:1000500053C0000051C000004FC000004DC0000060
:100060004BC0000049C0000047C0000045C0000070
:1000700043C0000041C000003FC000003DC0000080
:100080003BC0000039C0000037C0000035C0000090
:1000900033C0000031C000002FC000002DC00000A0
:1000A0002BC0000029C0000027C0000025C00000B0
:1000B00023C0000021C000001FC000001DC00000C0
:1000C0001BC0000019C0000017C0000015C00000D0
:1000D00013C0000011C000000FC000000DC00000E0
:1000E0000BC0000011241FBECFEFD1E2DEBFCDBF99
:1000F00000E00CBF4AD39DC483CF8F929F92AF92F2
:10010000BF92CF92DF92EF92FF920F931F93CF9304
:10011000DF938C01C0E0D0E070C018B812B8B8010D
:10012000012E000C880B990B6DD34B015C0120E074
:1001300030E04AE755E4F2D36B017C0120E030E087
:1001400040E85FE32DD3882304F120E03FEF4FE741
:1001500057E4C701B601DED318169CF420E030E066
:1001600040E251E4C501B401D9D31ED306C080E9F1
:1001700091E00197F1F76150710961157105B9F7C7
:1001800009C0C701B60110D302C061E070E0CB0125
:100190000197F1F78FE088B980EF82B920E030E075
:1001A00040E85FE3C701B601FBD2882304F120E0F9
:1001B0003FEF4FE757E4C701B601ACD318169CF4E4
:1001C00020E030E040E251E4C501B401A7D3ECD215
:1001D00006C080E991E00197F1F76150710961155E
:1001E0007105B9F709C0C701B601DED202C061E0EE
:1001F00070E0CB010197F1F72196C330D1050CF4E3
:100200008CCFDF91CF911F910F91FF90EF90DF90F6
:10021000CF90BF90AF909F908F9008958F929F92B4
:10022000AF92BF92CF92DF92EF92FF920F931F9304
:10023000CF93DF938C01C0E0D0E072C08AE088B930
:1002400080EA82B9B801012E000C880B990BDAD232
:100250004B015C0120E030E04AE755E45FD36B01DD
:100260007C0120E030E040E85FE39AD2882304F18B
:1002700020E03FEF4FE757E4C701B6014BD3181614
:100280009CF420E030E040E251E4C501B40146D3E3
:100290008BD206C080E991E00197F1F761507109B6
:1002A00061157105B9F709C0C701B6017DD202C059
:1002B00061E070E0CB010197F1F780E582B985E05C
:1002C00088B920E030E040E85FE3C701B60168D2BA
:1002D000882304F120E03FEF4FE757E4C701B60160
:1002E00019D318169CF420E030E040E251E4C50137
:1002F000B40114D359D206C080E991E00197F1F717
:100300006150710961157105B9F709C0C701B601DE
:100310004BD202C061E070E0CB010197F1F721966A
:10032000C330D1050CF48ACFC0E0D0E070C018B85B
:1003300080EF82B9B801012E000C880B990B62D2B4
:100340004B015C0120E030E04AE755E4E7D26B0165
:100350007C0120E030E040E85FE322D2882304F112
:1003600020E03FEF4FE757E4C701B601D3D218169C
:100370009CF420E030E040E251E4C501B401CED26B
:1003800013D206C080E991E00197F1F7615071093D
:1003900061157105B9F709C0C701B60105D202C0E0
:1003A00061E070E0CB010197F1F78FE088B912B8F6
:1003B00020E030E040E85FE3C701B601F1D18823D7
:1003C00004F120E03FEF4FE757E4C701B601A2D2A6
:1003D00018169CF420E030E040E251E4C501B4017D
:1003E0009DD2E2D106C080E991E00197F1F761501A
:1003F000710961157105B9F709C0C701B601D4D1FA
:1004000002C061E070E0CB010197F1F72196C330A3
:10041000D1050CF48CCFC0E0D0E072C083E088B985
:1004200080EC82B9B801012E000C880B990BEAD13F
:100430004B015C0120E030E04AE755E46FD26B01EC
:100440007C0120E030E040E85FE3AAD1882304F19A
:1004500020E03FEF4FE757E4C701B6015BD2181623
:100460009CF420E030E040E251E4C501B40156D2F2
:100470009BD106C080E991E00197F1F761507109C5
:1004800061157105B9F709C0C701B6018DD102C068
:1004900061E070E0CB010197F1F78CE088B980E36F
:1004A00082B920E030E040E85FE3C701B60178D1CF
:1004B000882304F120E03FEF4FE757E4C701B6017E
:1004C00029D218169CF420E030E040E251E4C50146
:1004D000B40124D269D106C080E991E00197F1F717
:1004E0006150710961157105B9F709C0C701B601FD
:1004F0005BD102C061E070E0CB010197F1F721967A
:10050000C330D1050CF48ACFDF91CF911F910F91A9
:10051000FF90EF90DF90CF90BF90AF909F908F9023
:1005200008954F925F926F927F928F929F92AF92B7
:10053000BF92EF92FF920F931F93CF93DF938C01A3
:10054000E12CF12CA7C081E090E00C2E02C0880FB6
:10055000991F0A94E2F7809582B988B9C730D1050E
:1005600009F43BC0B801012E000C880B990B4AD14D
:100570002B013C0120E030E04AE755E4CFD14B01AC
:100580005C0120E030E040E85FE30AD1882304F119
:1005900020E03FEF4FE757E4C501B401BBD1181687
:1005A0009CF420E030E040E251E4C301B201B6D156
:1005B000FBD006C080E991E00197F1F76150710925
:1005C00061157105B9F709C0C501B401EDD002C0CC
:1005D00061E070E0CB010197F1F7219602C0C0E025
:1005E000D0E0C830D1050CF4AECFC0E0D0E04BC0B5
:1005F00080E890E00C2E02C0959587950A94E2F76A
:10060000809582B988B9C730D10509F43BC0B801DB
:10061000012E000C880B990BF5D02B013C0120E03A
:1006200030E04AE755E47AD14B015C0120E030E04C
:1006300040E85FE3B5D0882304F120E03FEF4FE7C7
:1006400057E4C501B40166D118169CF420E030E0EF
:1006500040E251E4C301B20161D1A6D006C080E9F5
:1006600091E00197F1F76150710961157105B9F7D2
:1006700009C0C501B40198D002C061E070E0CB01AF
:100680000197F1F72196C830D1050CF4B1CF8FEF67
:10069000E81AF80A23E0E216F1040CF4A0CFDF9187
:1006A000CF911F910F91FF90EF90BF90AF909F90CF
:1006B0008F907F906F905F904F9008958F929F9250
:1006C000AF92BF92CF92DF92EF92FF92CF93DF93E0
:1006D000EC018091090180FD03C0CE010EDD0DC04B
:1006E0008091090181FD03C0CE0198DD06C0809193
:1006F000090182FD02C0CE0114DFBE01DD0F880BAF
:10070000990B80D04B015C0120E030E04AE755E4D2
:1007100005D16B017C0120E030E040E85FE340D090
:10072000882304F120E03FEF4FE757E4C701B6010B
:10073000F1D018169CF420E030E040E251E4C5010D
:10074000B401ECD031D006C080E991E00197F1F717
:100750006150710961157105B9F709C0C701B6018A
:1007600023D002C061E070E0CB010197F1F78FEF79
:1007700088B982B9DF91CF91FF90EF90DF90CF9051
:10078000BF90AF909F908F9008958FE087B980EFD2
:1007900081B988EF80930A0184E690E08FDFFCCF77
:1007A0006CD008F481E0089594D088F09F5790F0C1
:1007B000B92F9927B751A0F0D1F0660F771F881F86
:1007C000991F1AF0BA95C9F712C0B13081F09BD0C9
:1007D000B1E0089598C0672F782F8827B85F39F067
:1007E000B93FCCF3869577956795B395D9F73EF4E5
:1007F00090958095709561957F4F8F4F9F4F08958D
:10080000E89409C097FB3EF49095809570956195AA
:100810007F4F8F4F9F4F9923A9F0F92F96E9BB2760
:100820009395F695879577956795B795F111F8CFDC
:10083000FAF4BB0F11F460FF1BC06F5F7F4F8F4F47
:100840009F4F16C0882311F096E911C0772321F03D
:100850009EE8872F762F05C0662371F096E8862FD5
:1008600070E060E02AF09A95660F771F881FDAF72C
:10087000880F9695879597F90895990F0008550F59
:10088000AA0BE0E8FEEF16161706E807F907C0F016
:1008900012161306E407F50798F0621B730B840B1E
:1008A000950B39F40A2661F0232B242B252B21F4F8
:1008B00008950A2609F4A140A6958FEF811D811D98
:1008C000089557FD9058440F551F59F05F3F71F040
:1008D0004795880F97FB991F61F09F3F79F08795A7
:1008E0000895121613061406551FF2CF4695F1DF30
:1008F00008C0161617061806991FF1CF86957105C0
:10090000610508940895E894BB2766277727CB01F3
:1009100097F90895B2DF08F48FEF08950BD078C0EF
:1009200069D028F06ED018F0952309F05AC05FC046
:100930001124EACFC6DFA0F3959FD1F3950F50E0C5
:10094000551F629FF001729FBB27F00DB11D639F81
:10095000AA27F00DB11DAA1F649F6627B00DA11D27
:10096000661F829F2227B00DA11D621F739FB00DCD
:10097000A11D621F839FA00D611D221F749F33273D
:10098000A00D611D231F849F600D211D822F762FD6
:100990006A2F11249F5750408AF0E1F088234AF0D3
:1009A000EE0FFF1FBB1F661F771F881F915050401F
:1009B000A9F79E3F510570F014C0A6CF5F3FECF33E
:1009C000983EDCF3869577956795B795F795E7950B
:1009D0009F5FC1F7FE2B880F911D9695879597F91C
:1009E000089597F99F6780E870E060E008959FEFB1
:1009F00080EC089500240A941616170618060906B6
:100A0000089500240A941216130614060506089584
:100A1000092E0394000C11F4882352F0BB0F40F40C
:100A2000BF2B11F460FF04C06F5F7F4F8F4F9F4F4C
:060A30000895F894FFCFC9
:00000001FF
