:1000000071C0000081C000007FC000007DC0000002
:100010007BC000007AC0000099C0000075C00000DD
:1000200073C0000071C000006FC000006DC0000010
:100030006BC0000069C0000067C0000065C0000020
:1000400063C0000061C000005FC000005DC0000030
:100050005BC0000059C0000057C0000055C0000040
:1000600053C0000051C000004FC000004DC0000050
:100070004BC0000049C0000047C0000045C0000060
:1000800043C0000041C000003FC000003DC0000070
:100090003BC0000039C0000037C0000035C0000080
:1000A00033C0000031C000002FC000002DC0000090
:1000B0002BC0000029C0000027C0000025C00000A0
:1000C00023C0000021C000001FC000001DC00000B0
:1000D0001BC0000019C0000017C0000015C00000C0
:1000E00013C0000011241FBECFEFD1E2DEBFCDBF91
:1000F00000E00CBF22E0A0E0B2E001C01D92A13000
:10010000B207E1F744D068C07BCF1F920F920FB6C1
:100110000F9211242F938F939F93F8942FEF89EFD1
:1001200090E0215080409040E1F700C0000081E461
:10013000809300028CB380618CBB78949F918F91E7
:100140002F910F900FBE0F901F9018951F920F9236
:100150000FB60F9211242F938F939F93F8942FEF44
:1001600089EF90E0215080409040E1F700C000000E
:1001700082E4809300028CB380628CBB78949F9160
:100180008F912F910F900FBE0F901F901895F8949C
:100190008DB18F7C8DB98FE080936A0080E38DBB39
:1001A0008CB380638CBB1092CD0087E68093CC002B
:1001B00088E18093C90086E38093CA007894909187
:1001C00000029923E1F38091C80085FFFCCF909352
:0C01D000CE0010920002F3CFF894FFCF95
:00000001FF
