:1000000071C0000081C000007FC00000D8C00000A7
:100010007BC0000079C0000008C1000075C000006E
:1000200073C0000071C000006FC0000034C1000048
:100030006BC0000069C0000067C0000065C0000020
:1000400063C0000061C000005FC000005DC0000030
:100050005BC0000059C0000057C0000055C0000040
:1000600053C0000051C000004FC000004DC0000050
:100070004BC0000049C0000047C0000045C0000060
:1000800043C0000041C000003FC000003DC0000070
:100090003BC0000039C0000037C0000035C0000080
:1000A00033C0000031C000002FC000002DC0000090
:1000B0002BC0000029C0000027C0000025C00000A0
:1000C00023C0000021C000001FC000001DC00000B0
:1000D0001BC0000019C0000017C0000015C00000C0
:1000E00013C0000011241FBECFEFD1E2DEBFCDBF91
:1000F00000E00CBF22E0A0E0B2E001C01D92A430FD
:10010000B207E1F70ED128C17BCF80910202909116
:1001100003020F9741F4109203021092020288B179
:100120008F6088B908958091020290910302019630
:100130009093030280930202809102029091030245
:1001400098B19F6098B998B18095892388B908952E
:1001500080910002909101020F9741F410920102E8
:100160001092000288B1806F88B9089580910002D2
:100170009091010201969093010280930002809178
:1001800000029091010298B1906F98B998B1829550
:10019000807F8095892388B908952091020230914B
:1001A00003028091000290910102820F931F98B187
:1001B0009FEF98B998B18095892388B908951F92C7
:1001C0000F920FB60F9211240BB60F922F933F93FD
:1001D0004F935F936F937F938F939F93AF93BF934F
:1001E000EF93FF9380ED97E005C0E0E9F1E03197F0
:1001F000F1F701970097C9F7F8948CB384608CBB32
:10020000789483DFFF91EF91BF91AF919F918F9190
:100210007F916F915F914F913F912F910F900BBE06
:100220000F900FBE0F901F9018951F920F920FB650
:100230000F9211240BB60F922F933F934F935F931E
:100240006F937F938F939F93AF93BF93EF93FF939E
:1002500080ED97E005C0E0E9F1E03197F1F7019713
:100260000097C9F7F8948CB380628CBB789470DFE8
:10027000FF91EF91BF91AF919F918F917F916F917E
:100280005F914F913F912F910F900BBE0F900FBE3A
:100290000F901F9018951F920F920FB60F92112476
:1002A0000BB60F922F933F934F935F936F937F9370
:1002B0008F939F93AF93BF93EF93FF9380ED97E05E
:1002C00005C0E0E9F1E03197F1F701970097C9F730
:1002D000F894909106018BB384608BBB789492FD67
:1002E00002C05BDF0BC01092030210920202109258
:1002F0000102109200028FEF88B91895FF91EF91DB
:10030000BF91AF919F918F917F916F915F914F912D
:100310003F912F910F900BBE0F900FBE0F901F902B
:100320001895F89480E28093690088E080936A00D1
:1003300084E28DBB8CBB84E0809368008BBB809390
:100340006D008FEF88B987B98BEF8AB99FED9DB9A2
:0C035000809307017894FFCFF894FFCF52
:00000001FF
