:1000000071C00000A4C00000BBC000007DC00000A3
:100010007BC0000079C0000077C0000075C0000000
:1000200073C0000071C000006FC000006DC0000010
:100030006BC0000069C0000067C0000065C0000020
:1000400063C0000061C000005FC000005DC0000030
:100050005BC0000059C0000057C0000055C0000040
:1000600053C0000051C000004FC000004DC0000050
:100070004BC0000049C0000047C0000045C0000060
:1000800043C0000041C000003FC000003DC0000070
:100090003BC0000039C0000037C0000035C0000080
:1000A00033C0000031C000002FC000002DC0000090
:1000B0002BC0000029C0000027C0000025C00000A0
:1000C00023C0000021C000001FC000001DC00000B0
:1000D0001BC0000019C0000017C0000015C00000C0
:1000E00013C0000011241FBECFEFD1E2DEBFCDBF91
:1000F00000E00CBF22E0A0E0B2E001C01D92A230FF
:10010000B207E1F756D08CC07BCF9C0194B19260CE
:1001100094B9E0E8F0E0908194609083E1E8F0E049
:1001200090819A6190833093870020938600089590
:10013000109280001092810010928500109284002D
:1001400010928700109286008DEF84B908951F9257
:100150000F920FB60F9211248F939F93F89481E022
:1001600090E090930102809300028CB381608CBB7D
:1001700078949F918F910F900FBE0F901F901895BC
:100180001F920F920FB60F9211248F939F93F894A2
:1001900082E090E090930102809300028CB3826031
:1001A0008CBB78949F918F910F900FBE0F901F90F2
:1001B0001895F8941092CD0087E68093CC001092A9
:1001C000C800E9ECF0E088E180838081806880836A
:1001D00086E08093CA0080E884B91AB81BB815B8C5
:1001E0008AE08093690083E08DBB8CB383608CBB15
:1001F000789480910002909101028130910541F440
:1002000081EE98E082DF1092010210920002F1CF9D
:10021000029779F78DDF1092010210920002E9CF68
:04022000F894FFCF80
:00000001FF
