S011000050726F6A6563745F322E73726563AB
S113000071C0000079C0000077C000005EC200002B
S113001073C0000071C0000091C200006DC00000F8
S11300206BC0000069C0000067C00000C0C20000CF
S113003063C0000061C000005FC000005DC000003C
S11300405BC0000059C0000057C0000055C000004C
S113005053C0000051C000004FC000004DC000005C
S11300604BC0000049C0000047C0000045C000006C
S113007043C0000041C000003FC000003DC000007C
S11300803BC0000039C0000037C0000035C000008C
S113009033C0000031C000002FC000002DC000009C
S11300A02BC0000029C0000027C0000025C00000AC
S11300B023C0000021C000001FC000001DC00000BC
S11300C01BC0000019C0000017C0000015C00000CC
S11300D013C0000011C000000FC000000DC00000DC
S11300E00BC0000011241FBECFEFD1E2DEBFCDBF95
S11300F000E00CBF9AD202C483CF8F929F92AF923A
S1130100BF92CF92DF92EF92FF920F931F93CF9300
S1130110DF938C01C0E0D0E06DC018B8B801012EA7
S1130120000C880B990BD3D24B015C0120E030E02A
S11301304AE755E458D36B017C0120E030E040E805
S11301405FE393D2882304F120E03FEF4FE757E4C5
S1130150C701B60144D318169CF420E030E040E215
S113016051E4C501B4013FD384D206C080E991E0D3
S11301700197F1F76150710961157105B9F709C06B
S1130180C701B60176D202C061E070E0CB010197ED
S1130190F1F78FEF88B920E030E040E85FE3C70172
S11301A0B60163D2882304F120E03FEF4FE757E420
S11301B0C701B60114D318169CF420E030E040E2E5
S11301C051E4C501B4010FD354D206C080E991E0D3
S11301D00197F1F76150710961157105B9F709C00B
S11301E0C701B60146D202C061E070E0CB010197BD
S11301F0F1F72196C330D1050CF48FCFDF91CF9165
S11302001F910F91FF90EF90DF90CF90BF90AF9030
S11302109F908F9008958F929F92AF92BF92CF92AA
S1130220DF92EF92FF920F931F93CF93DF938C0192
S1130230C0E0D0E06EC08AEA88B9B801012E000C93
S1130240880B990B44D24B015C0120E030E04AE773
S113025055E4C9D26B017C0120E030E040E85FE363
S113026004D2882304F120E03FEF4FE757E4C701AD
S1130270B601B5D218169CF420E030E040E251E417
S1130280C501B401B0D2F5D106C080E991E001976F
S1130290F1F76150710961157105B9F709C0C7011A
S11302A0B601E7D102C061E070E0CB010197F1F73C
S11302B085E588B920E030E040E85FE3C701B60196
S11302C0D4D1882304F120E03FEF4FE757E4C7017E
S11302D0B60185D218169CF420E030E040E251E4E7
S11302E0C501B40180D2C5D106C080E991E001976F
S11302F0F1F76150710961157105B9F709C0C701BA
S1130300B601B7D102C061E070E0CB010197F1F70B
S11303102196C330D1050CF48ECFDF91CF911F917C
S11303200F91FF90EF90DF90CF90BF90AF909F9090
S11303308F9008954F925F926F927F928F929F92C7
S1130340AF92BF92EF92FF920F931F93CF93DF93DD
S11303508C01E12CF12CA5C081E090E00C2E02C0B0
S1130360880F991F0A94E2F7809588B9C730D105A0
S113037009F43BC0B801012E000C880B990BA7D1DE
S11303802B013C0120E030E04AE755E42CD24B013C
S11303905C0120E030E040E85FE367D1882304F1AA
S11303A020E03FEF4FE757E4C501B40118D2181617
S11303B09CF420E030E040E251E4C301B20113D2E6
S11303C058D106C080E991E00197F1F761507109B5
S11303D061157105B9F709C0C501B4014AD102C05C
S11303E061E070E0CB010197F1F7219602C0C0E013
S11303F0D0E0C830D1050CF4AFCFC0E0D0E04AC0A3
S113040080E890E00C2E02C0959587950A94E2F757
S1130410809588B9C730D10509F43BC0B801012ED5
S1130420000C880B990B53D12B013C0120E030E0E8
S11304304AE755E4D8D14B015C0120E030E040E8C4
S11304405FE313D1882304F120E03FEF4FE757E443
S1130450C501B401C4D118169CF420E030E040E298
S113046051E4C301B201BFD104D106C080E991E0D7
S11304700197F1F76150710961157105B9F709C068
S1130480C501B401F6D002C061E070E0CB01019770
S1130490F1F72196C830D1050CF4B2CF8FEFE81AEA
S11304A0F80A23E0E216F1040CF4A1CFDF91CF9116
S11304B01F910F91FF90EF90BF90AF909F908F90FE
S11304C07F906F905F904F9008951F920F920FB698
S11304D00F9211240BB60F922F933F934F935F9378
S11304E06F937F938F939F93AF93BF93EF93FF93F8
S11304F0F8948CB384608CBB789488EC90E01ADF19
S113050080ED97E005C0E0E9F1E03197F1F701975C
S11305100097C9F71895FF91EF91BF91AF919F9103
S11305208F917F916F915F914F913F912F910F9098
S11305300BBE0F900FBE0F901F9018951F920F9235
S11305400FB60F9211240BB60F922F933F934F9334
S11305505F936F937F938F939F93AF93BF93EF9327
S1130560FF93F8948CB380628CBB789488EC90E011
S1130570C4DD80ED97E005C0E0E9F1E03197F1F7E3
S113058001970097C9F71895FF91EF91BF91AF912B
S11305909F918F917F916F915F914F913F912F9197
S11305A00F900BBE0F900FBE0F901F9018951F92C7
S11305B00F920FB60F9211240BB60F922F933F9305
S11305C04F935F936F937F938F939F93AF93BF9357
S11305D0EF93FF93F89480910601847078948823B4
S11305E019F088EC90E017DE8BB384608BBB80ED50
S11305F097E005C0E0E9F1E03197F1F70197009742
S1130600C9F71895FF91EF91BF91AF919F918F9189
S11306107F916F915F914F913F912F910F900BBEFE
S11306200F900FBE0F901F901895F89480E380935D
S113063069008CE080936A0084E28DBB8CBB84E00B
S1130640809368008BBB80936D008FEF88B987B966
S11306508AB18B7F8AB98DB18F7D8DB9E7E0F1E0E6
S113066080818B7F80837894FFCF6CD008F481E005
S1130670089594D088F09F5790F0B92F9927B751D7
S1130680A0F0D1F0660F771F881F991F1AF0BA9552
S1130690C9F712C0B13081F09BD0B1E0089598C081
S11306A0672F782F8827B85F39F0B93FCCF3869548
S11306B077956795B395D9F73EF4909580957095A5
S11306C061957F4F8F4F9F4F0895E89409C097FB22
S11306D03EF490958095709561957F4F8F4F9F4F15
S11306E09923A9F0F92F96E9BB279395F695879559
S11306F077956795B795F111F8CFFAF4BB0F11F41C
S113070060FF1BC06F5F7F4F8F4F9F4F16C08823C2
S113071011F096E911C0772321F09EE8872F762FF8
S113072005C0662371F096E8862F70E060E02AF039
S11307309A95660F771F881FDAF7880F9695879525
S113074097F90895990F0008550FAA0BE0E8FEEFFA
S113075016161706E807F907C0F012161306E40781
S1130760F50798F0621B730B840B950B39F40A267A
S113077061F0232B242B252B21F408950A2609F458
S1130780A140A6958FEF811D811D089557FD9058B6
S1130790440F551F59F05F3F71F04795880F97FB41
S11307A0991F61F09F3F79F08795089512161306FB
S11307B01406551FF2CF4695F1DF08C0161617062A
S11307C01806991FF1CF869571056105089408955F
S11307D0E894BB2766277727CB0197F90895B2DF02
S11307E008F48FEF08950BD078C069D028F06ED04C
S11307F018F0952309F05AC05FC01124EACFC6DF70
S1130800A0F3959FD1F3950F50E0551F629FF0011F
S1130810729FBB27F00DB11D639FAA27F00DB11D78
S1130820AA1F649F6627B00DA11D661F829F222701
S1130830B00DA11D621F739FB00DA11D621F839F88
S1130840A00D611D221F749F3327A00D611D231F5E
S1130850849F600D211D822F762F6A2F11249F57AC
S113086050408AF0E1F088234AF0EE0FFF1FBB1FCF
S1130870661F771F881F91505040A9F79E3F51056E
S113088070F014C0A6CF5F3FECF3983EDCF386957E
S113089077956795B795F795E7959F5FC1F7FE2B19
S11308A0880F911D9695879597F9089597F99F67F5
S11308B080E870E060E008959FEF80EC08950024E4
S11308C00A941616170618060906089500240A94B1
S11308D012161306140605060895092E0394000C37
S11308E011F4882352F0BB0F40F4BF2B11F460FFC6
S11308F004C06F5F7F4F8F4F9F4F0895F894FFCFD1
S9030000FC
