S00C0000313132322E7372656352
S113000071C000008EC000008CC000008AC00000D7
S113001088C0000086C0000084C0000082C00000C8
S113002080C000007EC000007CC000007AC00000D8
S113003078C0000076C0000074C0000072C00000E8
S113004070C000006EC000006CC000006AC00000F8
S113005068C0000066C0000064C0000062C0000008
S113006060C000005EC000005CC000005AC0000018
S113007058C0000056C0000054C0000052C0000028
S113008050C000004EC000004CC000004AC0000038
S11300903DC3000046C0000044C0000042C0000050
S11300A040C000003EC000003CC000003AC0000058
S11300B038C0000036C0000034C0000032C0000068
S11300C030C000002EC000002CC000002AC0000078
S11300D028C0000026C0000024C0000022C0000088
S11300E020C0000011241FBECFEFD1E2DEBFCDBF80
S11300F000E00CBF12E0A0E0B2E0EAE9FBE000E0BF
S11301000BBF02C007900D92AE31B107D9F722E0C0
S1130110AEE1B2E001C01D92A638B207E1F78FD379
S11301203AC56ECF8F929F92AF92BF92CF92DF92D9
S1130130EF92FF920F931F93CF93DF938C01C0E054
S1130140D0E06DC018B8B801012E000C880B990BD3
S1130150E8D34B015C0120E030E04AE755E46DD47C
S11301606B017C0120E030E040E85FE3A8D3882302
S113017004F120E03FEF4FE757E4C701B60159D43B
S113018018169CF420E030E040E251E4C501B401CB
S113019054D499D306C080E991E00197F1F76150F6
S11301A0710961157105B9F709C0C701B6018BD38F
S11301B002C061E070E0CB010197F1F78FEF88B9DD
S11301C020E030E040E85FE3C701B60178D388233C
S11301D004F120E03FEF4FE757E4C701B60129D40B
S11301E018169CF420E030E040E251E4C501B4016B
S11301F024D469D306C080E991E00197F1F76150F6
S1130200710961157105B9F709C0C701B6015BD35E
S113021002C061E070E0CB010197F1F72196C33091
S1130220D1050CF48FCFDF91CF911F910F91FF90E7
S1130230EF90DF90CF90BF90AF909F908F900895F4
S11302408F929F92AF92BF92CF92DF92EF92FF92E2
S11302500F931F93CF93DF938C01C0E0D0E06EC067
S11302608AEA88B9B801012E000C880B990B59D37E
S11302704B015C0120E030E04AE755E4DED36B013A
S11302807C0120E030E040E85FE319D3882304F1E7
S113029020E03FEF4FE757E4C701B601CAD3181671
S11302A09CF420E030E040E251E4C501B401C5D340
S11302B00AD306C080E991E00197F1F76150710912
S11302C061157105B9F709C0C701B601FCD202C0B6
S11302D061E070E0CB010197F1F785E588B920E092
S11302E030E040E85FE3C701B601E9D2882304F1B6
S11302F020E03FEF4FE757E4C701B6019AD3181641
S11303009CF420E030E040E251E4C501B40195D30F
S1130310DAD206C080E991E00197F1F761507109E2
S113032061157105B9F709C0C701B601CCD202C085
S113033061E070E0CB010197F1F72196C330D1055C
S11303400CF48ECFC0E0D0E06EC080EF88B9B80165
S1130350012E000C880B990BE4D24B015C0120E0C8
S113036030E04AE755E469D36B017C0120E030E0DA
S113037040E85FE3A4D2882304F120E03FEF4FE795
S113038057E4C701B60155D318169CF420E030E0B9
S113039040E251E4C501B40150D395D206C080E9CE
S11303A091E00197F1F76150710961157105B9F791
S11303B009C0C701B60187D202C061E070E0CB0179
S11303C00197F1F78FE088B920E030E040E85FE37F
S11303D0C701B60174D2882304F120E03FEF4FE750
S11303E057E4C701B60125D318169CF420E030E089
S11303F040E251E4C501B40120D365D206C080E9CE
S113040091E00197F1F76150710961157105B9F730
S113041009C0C701B60157D202C061E070E0CB0148
S11304200197F1F72196C330D1050CF48ECFC0E0CB
S1130430D0E06EC083EC88B9B801012E000C880BA3
S1130440990B6FD24B015C0120E030E04AE755E4A0
S1130450F4D26B017C0120E030E040E85FE32FD26E
S1130460882304F120E03FEF4FE757E4C701B601CA
S1130470E0D218169CF420E030E040E251E4C501DB
S1130480B401DBD220D206C080E991E00197F1F7F4
S11304906150710961157105B9F709C0C701B60149
S11304A012D202C061E070E0CB010197F1F78CE356
S11304B088B920E030E040E85FE3C701B601FFD12E
S11304C0882304F120E03FEF4FE757E4C701B6016A
S11304D0B0D218169CF420E030E040E251E4C501AB
S11304E0B401ABD2F0D106C080E991E00197F1F7F5
S11304F06150710961157105B9F709C0C701B601E9
S1130500E2D102C061E070E0CB010197F1F72196DE
S1130510C330D1050CF48ECFDF91CF911F910F9191
S1130520FF90EF90DF90CF90BF90AF909F908F900F
S113053008954F925F926F927F928F929F92AF92A3
S1130540BF92EF92FF920F931F93CF93DF938C018F
S1130550E12CF12CA5C081E090E00C2E02C0880FA4
S1130560991F0A94E2F7809588B9C730D10509F438
S11305703BC0B801012E000C880B990BD2D12B0182
S11305803C0120E030E04AE755E457D24B015C01DE
S113059020E030E040E85FE392D1882304F120E0DA
S11305A03FEF4FE757E4C501B40143D218169CF45A
S11305B020E030E040E251E4C301B2013ED283D1F5
S11305C006C080E991E00197F1F761507109611566
S11305D07105B9F709C0C501B40175D102C061E064
S11305E070E0CB010197F1F7219602C0C0E0D0E0A2
S11305F0C830D1050CF4AFCFC0E0D0E04AC080E8E9
S113060090E00C2E02C0959587950A94E2F78095A8
S113061088B9C730D10509F43BC0B801012E000CDC
S1130620880B990B7ED12B013C0120E030E04AE796
S113063055E403D24B015C0120E030E040E85FE385
S11306403ED1882304F120E03FEF4FE757E4C50192
S1130650B401EFD118169CF420E030E040E251E4FC
S1130660C301B201EAD12FD106C080E991E001971C
S1130670F1F76150710961157105B9F709C0C50138
S1130680B40121D102C061E070E0CB010197F1F720
S11306902196C830D1050CF4B2CF8FEFE81AF80ACE
S11306A023E0E216F1040CF4A1CFDF91CF911F9166
S11306B00F91FF90EF90BF90AF909F908F907F909D
S11306C06F905F904F9008959091C80095FFFCCF74
S11306D08093CE000895EF92FF920F931F93CF93D0
S11306E0DF937C018B01C0E0D0E006C0F701EC0F82
S11306F0FD1F8081E9DF2196C017D107BCF3DF918C
S1130700CF911F910F91FF90EF9008951F920F9238
S11307100FB60F9211240BB60F922F933F934F9362
S11307205F938F939F93EF93FF93F8948091CE0000
S11307308A3049F08D3039F0209120023091210225
S11307402436310538F081E090E090931F028093C5
S11307501E020BC0A9014F5F5F4F509321024093CB
S11307602002F901EE5DFD4F80837894FF91EF91B3
S11307709F918F915F914F913F912F910F900BBE5D
S11307800F900FBE0F901F9018950F931F93CF9348
S1130790DF93CDB7DEB7C456D1090FB6F894DEBFE8
S11307A00FBECDBF8E010F5F1F4F24E6F8011192DB
S11307B02A95E9F7462F50E0BC01C801C9D160E091
S11307C072E0C801CED1892B59F06091200270915A
S11307D0210282E292E07FDF84E690E0A3DC23C082
S11307E06BE072E0CE010196BCD1892B59F0609187
S11307F020027091210282E292E06DDF84E690E0B3
S11308001FDD11C063E172E0CE010196AAD1892BEC
S113081051F0609120027091210282E292E05BDF4C
S113082084E690E086DECC59DF4F0FB6F894DEBF45
S11308300FBECDBFDF91CF911F910F910895F89412
S11308408DB18F7C8DB98FE080936A0080E38DBB7E
S11308508CB380638CBB1092CD0087E68093CC0070
S1130860E9ECF0E088E1808380818068808386E021
S11308708093CA0078948FEF87B988B980911E025B
S113088090911F02892BD1F3609120027091210273
S1130890FB01EE5DFD4F108282E292E076DF109262
S11308A021021092200284E6E2E2F2E0DF011D92CE
S11308B08A95E9F710921F0210921E02DFCF6CD0C6
S11308C008F481E0089594D088F09F5790F0B92FF0
S11308D09927B751A0F0D1F0660F771F881F991F91
S11308E01AF0BA95C9F712C0B13081F09BD0B1E0CB
S11308F0089598C0672F782F8827B85F39F0B93FDB
S1130900CCF3869577956795B395D9F73EF4909592
S11309108095709561957F4F8F4F9F4F0895E89410
S113092009C097FB3EF490958095709561957F4F33
S11309308F4F9F4F9923A9F0F92F96E9BB279395E1
S1130940F695879577956795B795F111F8CFFAF4F1
S1130950BB0F11F460FF1BC06F5F7F4F8F4F9F4F22
S113096016C0882311F096E911C0772321F09EE880
S1130970872F762F05C0662371F096E8862F70E0E6
S113098060E02AF09A95660F771F881FDAF7880FC0
S11309909695879597F90895990F0008550FAA0B16
S11309A0E0E8FEEF16161706E807F907C0F012167E
S11309B01306E407F50798F0621B730B840B950B81
S11309C039F40A2661F0232B242B252B21F40895D6
S11309D00A2609F4A140A6958FEF811D811D089573
S11309E057FD9058440F551F59F05F3F71F04795DC
S11309F0880F97FB991F61F09F3F79F087950895C1
S1130A00121613061406551FF2CF4695F1DF08C0DF
S1130A10161617061806991FF1CF869571056105FC
S1130A2008940895E894BB2766277727CB0197F9A4
S1130A300895B2DF08F48FEF08950BD078C069D021
S1130A4028F06ED018F0952309F05AC05FC0112425
S1130A50EACFC6DFA0F3959FD1F3950F50E0551F61
S1130A60629FF001729FBB27F00DB11D639FAA27FF
S1130A70F00DB11DAA1F649F6627B00DA11D661F4E
S1130A80829F2227B00DA11D621F739FB00DA11D6F
S1130A90621F839FA00D611D221F749F3327A00D29
S1130AA0611D231F849F600D211D822F762F6A2FC5
S1130AB011249F5750408AF0E1F088234AF0EE0F4A
S1130AC0FF1FBB1F661F771F881F91505040A9F757
S1130AD09E3F510570F014C0A6CF5F3FECF3983EE3
S1130AE0DCF3869577956795B795F795E7959F5FBE
S1130AF0C1F7FE2B880F911D9695879597F9089558
S1130B0097F99F6780E870E060E008959FEF80ECBC
S1130B10089500240A94161617061806090608955F
S1130B2000240A9412161306140605060895092EC5
S1130B300394000C11F4882352F0BB0F40F4BF2B34
S1130B4011F460FF04C06F5F7F4F8F4F9F4F089574
S1130B50FB01DC0102C001900D9241505040D8F7D6
S1130B600895FB0151915523A9F0BF01DC014D917A
S1130B7045174111E1F759F4CD010190002049F0E6
S1130B804D9140154111C9F3FB014111EFCF81E0B3
S10D0B9090E001970895F894FFCF58
S1130B9A4C45445F4F4E5F4F4646004C45445F41C7
S1110BAA4C54004C45445F53484946540000E7
S9030000FC
