S00C0000313230362E737265634F
S113000071C0000040C1000097C100008AC0000018
S113001088C00000E8C1000084C0000082C0000065
S113002080C000007EC000007CC000007AC00000D8
S113003078C0000076C0000074C0000072C00000E8
S113004070C000006EC000006CC000006AC00000F8
S113005068C0000066C0000064C0000062C0000008
S113006060C000005EC000005CC000005AC0000018
S113007058C0000056C0000054C0000052C0000028
S113008050C000004EC000004CC000004AC0000038
S113009048C0000046C0000044C0000042C0000048
S11300A040C000003EC000003CC000003AC0000058
S11300B038C0000036C0000034C0000032C0000068
S11300C030C000002EC000002CC000002AC0000078
S11300D028C0000026C0000024C0000022C0000088
S11300E020C0000011241FBECFEFD1E2DEBFCDBF80
S11300F000E00CBF12E0A0E0B2E0E2E6FBE000E0CA
S11301000BBF02C007900D92A633B107D9F722E0C6
S1130110A6E3B2E001C01D92AA33B207E1F7B2D15F
S11301201EC56ECF9091C80095FFFCCF8093CE0082
S113013008950F931F93CF93DF93CDB7DEB7C058C5
S1130140D1090FB6F894DEBF0FBECDBF80E008C062
S1130150E1E0F0E0EC0FFD1FE80FF11D10828F5F6E
S11301608823B4F7AE0146575F4FC857DF4F688105
S11301707981C858D0408E010F5F1F4FC8011AD231
S1130180F80101900020E9F731978E2F801B082F8A
S113019010E009C0E1E0F0E0EC0FFD1FE10FF11DFC
S11301A08081C0DF1F5F1017A8F3C058DF4F0FB660
S11301B0F894DEBF0FBECDBFDF91CF911F910F9199
S11301C00895AC0184B1806884B9E0E8F0E08081EE
S11301D084608083E1E8F0E080818A6180839A0111
S11301E0A3E9B4E2B6D1281B390B36952795820FC3
S11301F0931F96958795969587959C01220F331F9B
S1130200220F331F220F331FB901681B790B9A0188
S1130210261B370BC901880F991FFC01E050FE4FC4
S1130220208131812F5F3F4F22953295307F3227D5
S1130230207F322740E050E060E074E284EF90E0F9
S11302406CD130938700209386001092390210926B
S1130250380288B18E7F88B9089510928000109278
S113026081001092850010928400109287001092F1
S113027086008FE784B9109239021092380288B14F
S1130280816088B908951F920F920FB60F921124BE
S11302900BB60F922F933F934F935F936F937F937C
S11302A08F939F93AF93BF93EF93FF93F8948091B1
S11302B0860090918700892B61F18091360290919C
S11302C0370201969093370280933602079734F0F1
S11302D086E090E090933702809336028CB381607D
S11302E08CBB81E090E0909339028093380278943B
S11302F08EE092E09F938F931CDF0F900F9088EE17
S113030093E005C0E0E9F1E03197F1F70197009738
S1130310C9F7FF91EF91BF91AF919F918F917F9119
S11303206F915F914F913F912F910F900BBE0F9062
S11303300FBE0F901F9018951F920F920FB60F9239
S113034011240BB60F922F933F934F935F936F93A8
S11303507F938F939F93AF93BF93EF93FF93F894FF
S11303608091860090918700892B51F1809136020B
S11303709091370201979093370280933602992324
S113038024F410923702109236028CB382608CBB34
S113039081E090E0909339028093380278948BE165
S11303A092E09F938F93C5DE0F900F9088EE93E0B9
S11303B005C0E0E9F1E03197F1F701970097C9F73B
S11303C0FF91EF91BF91AF919F918F917F916F9129
S11303D05F914F913F912F910F900BBE0F900FBEE5
S11303E00F901F9018951F920F920FB60F92112421
S11303F00BB60F922F933F934F935F936F937F931B
S11304008F939F93AF93BF93EF93FF93F89480914F
S1130410860090918700892B39F082E090E09093D8
S113042039028093380206C081E090E0909339024B
S1130430809338028CB380618CBB789488E292E01C
S11304409F938F9376DE0F900F9088EE93E005C014
S1130450E0E9F1E03197F1F701970097C9F7FF91CF
S1130460EF91BF91AF919F918F917F916F915F9128
S11304704F913F912F910F900BBE0F900FBE0F9095
S11304801F901895F8941AB891E097B914B815B854
S11304908FE08093690083E080936A001092CD001E
S11304A087E68093CC001092C800E9ECF0E088E184
S11304B0808380818068808386E08093CA008DB3C6
S11304C083618DBB8CB383618CBB98B97894C5DE92
S11304D080913802909139028130910581F48091A4
S11304E03602909137026DDE88EE93E005C0E0E9B4
S11304F0F1E03197F1F701970097C9F7E9CF029737
S113050039F7ABDE88EE93E005C0E0E9F1E031971E
S1130510F1F701970097C9F7DBCF052E97FB16F487
S113052000940FD057FD05D023D007FC02D046F429
S113053008C050954095309521953F4F4F4F5F4FE0
S1130540089590958095709561957F4F8F4F9F4F3B
S11305500895A29FB001B39FC001A39F700D811D98
S11305601124911DB29F700D811D1124911D0895B8
S1130570A1E21A2EAA1BBB1BFD010DC0AA1FBB1FA3
S1130580EE1FFF1FA217B307E407F50720F0A21B15
S1130590B30BE40BF50B661F771F881F991F1A9482
S11305A069F760957095809590959B01AC01BD01AC
S11305B0CF0108950F931F93CF93DF93CDB7DEB789
S11305C02E970FB6F894DEBF0FBECDBF8C0186E028
S11305D08C831A8309838FEF9FE79E838D83CE01DB
S11305E0019610D0EF81F885E00FF11F10822E964E
S11305F00FB6F894DEBF0FBECDBFDF91CF911F9130
S11306000F9108952F923F924F925F926F927F9233
S11306108F929F92AF92BF92CF92DF92EF92FF920E
S11306200F931F93CF93DF93CDB7DEB72B970FB6FE
S1130630F894DEBF0FBECDBF6C017B018A01FC01C3
S113064017821682838181FFBFC1CE0101963C01CE
S1130650F6019381F70193FD859193FF81917F01C9
S1130660882309F4ADC1853239F493FD859193FF54
S113067081917F01853221F4B60190E0D6D1E8CF93
S1130680912C212C312CFFE1F315D8F08B3279F029
S113069038F4803279F08332A1F4232D20611DC017
S11306A08D3261F0803369F4232D216016C0832DCF
S11306B08260382EE32DE4603E2E2AC0F32DF860CC
S11306C01DC037FC2DC020ED280F2A3040F08E329B
S11306D0B9F436FC75C1232D2064322E19C036FEC0
S11306E006C08AE0989E200D1124922E11C0EAE0E3
S11306F02E9E200D1124222EF32DF0623F2E08C0D1
S11307008C3621F4832D8068382E02C0883641F45B
S1130710F70193FD859193FF81917F018111B3CFFF
S1130720982F9F7D9554933028F40C5F1F4F9FE3BF
S113073099830DC0833631F0833771F0833509F026
S113074055C020C0F801808189830E5F1F4F882423
S11307508394912C530112C02801F2E04F0E511CD6
S1130760F801A080B18036FE03C0692D70E002C09C
S11307706FEF7FEFC5014ED14C018201F32DFF775E
S11307803F2E15C0280122E0420E511CF801A08022
S1130790B18036FE03C0692D70E002C06FEF7FEFB9
S11307A0C5012DD14C01F32DF0683F2E820133FC9D
S11307B019C0822D90E088169906A0F4B60180E253
S11307C090E033D12A94F5CFF50137FC859137FEBB
S11307D081915F01B60190E028D121102A9421E093
S11307E0821A91088114910479F7E1C0843611F0DA
S11307F0893639F5F80137FE07C06081718182813D
S113080093810C5F1F4F08C060817181072E000C1B
S1130810880B990B0E5F1F4FF32DFF763F2E97FF2A
S113082009C090958095709561957F4F8F4F9F4F2C
S1130830F0683F2E2AE030E0A30133D1882E8618D9
S113084044C0853731F4232D2F7EB22E2AE030E0C8
S113085025C0932D997FB92E8F36C1F018F48835B1
S113086079F0AEC0803719F0883721F0A9C0E92F9C
S1130870E061BE2EB4FE0DC0FB2DF460BF2E09C096
S113088034FE0AC0292F2660B22E06C028E030E0CC
S113089005C020E130E002C020E132E0F801B7FEFB
S11308A007C060817181828193810C5F1F4F06C0F4
S11308B06081718180E090E00E5F1F4FA301F1D051
S11308C0882E8618FB2DFF773F2E36FE0DC0232D74
S11308D02E7FA22E891458F434FE0BC032FC09C0BA
S11308E0832D8E7EA82E05C0B82CA32C03C0B82C53
S11308F001C0B92CA4FE0FC0FE01E80DF11D8081DA
S1130900803321F49A2D997EA92E09C0A2FE06C037
S1130910B394B39404C08A2D867809F0B394A3FCED
S113092010C0A0FE06C0B21480F4280C922C9B18B0
S11309300DC0B21458F4B60180E290E076D0B394BE
S1130940F8CFB21418F42B1802C0982C212CA4FE52
S11309500FC0B60180E390E068D0A2FE16C0A1FCEF
S113096003C088E790E002C088E590E0B6010CC0BF
S11309708A2D867851F0A1FE02C08BE201C080E28C
S1130980A7FC8DE2B60190E050D0891430F4B60192
S113099080E390E04AD09A94F8CF8A94F301E80D6A
S11309A0F11D8081B60190E040D08110F6CF222065
S11309B009F44ECEB60180E290E037D02A94F7CF06
S11309C0F6018681978102C08FEF9FEF2B960FB6B9
S11309D0F894DEBF0FBECDBFDF91CF911F910F9171
S11309E0FF90EF90DF90CF90BF90AF909F908F904B
S11309F07F906F905F904F903F902F900895FC01EF
S1130A000590615070400110D8F7809590958E0F35
S1130A109F1F0895FC016150704001900110D8F7A8
S1130A20809590958E0F9F1F08950F931F93CF93DA
S1130A30DF93FB01238121FD03C08FEF9FEF2CC0C7
S1130A4022FF16C0468157812481358142175307FE
S1130A5044F4A081B1819D012F5F3F4F31832083F6
S1130A608C93268137812F5F3F4F3783268314C0B1
S1130A708B01EC01FB010084F185E02D1995892B94
S1130A80E1F6D80116968D919C91179701961796C9
S1130A909C938E931697CE01DF91CF911F910F9166
S1130AA00895FA01AA27283051F1203181F1E89400
S1130AB06F936E7F6E5F7F4F8F4F9F4FAF4FB1E04D
S1130AC03ED0B4E03CD0670F781F891F9A1FA11D48
S1130AD0680F791F8A1F911DA11D6A0F711D811D49
S1130AE0911DA11D20D009F468943F912AE0269F0E
S1130AF011243019305D3193DEF6CF010895462F6D
S1130B004770405D4193B3E00FD0C9F7F6CF462F4D
S1130B104F70405D4A3318F0495D31FD40524193B6
S1130B2002D0A9F7EACFB4E0A69597958795779573
S1130B306795BA95C9F700976105710508959B01FA
S1130B40AC010A2E06945795479537952795BA9583
S1130B50C9F7620F731F841F951FA01D0895F89491
S1050B60FFCFC1
S1130B622D082D094D0AEA0A400CC00D6F0F3031D1
S1130B7220436C69636B6564200A00303220436C45
S1130B8269636B6564200A00303420436C69636BCB
S1090B926564200A000066
S9030000FC
