:1000000071C0000081C000007FC0000050C300002C
:100010007BC000007AC30000A6C3000075C00000CA
:1000200073C0000071C000006FC00000CAC30000B0
:100030006BC0000069C0000067C0000065C0000020
:1000400063C0000061C000005FC000005DC0000030
:100050005BC0000059C0000057C0000055C0000040
:1000600053C0000051C000004FC000004DC0000050
:100070004BC0000049C0000047C0000045C0000060
:1000800043C0000041C000003FC000003DC0000070
:100090003BC0000039C0000037C0000035C0000080
:1000A00033C0000031C000002FC000002DC0000090
:1000B0002BC0000029C0000027C0000025C00000A0
:1000C00023C0000021C000001FC000001DC00000B0
:1000D0001BC0000019C0000017C0000015C00000C0
:1000E00013C0000011241FBECFEFD1E2DEBFCDBF91
:1000F00000E00CBF22E0A0E0B2E001C01D92A03001
:10010000B207E1F7A6D300C57BCF8F929F92AF9243
:10011000BF92CF92DF92EF92FF920F931F93CF93F4
:10012000DF938C01C0E0D0E06DC018B8B801012E9B
:10013000000C880B990BD1D34B015C0120E030E01F
:100140004AE755E456D46B017C0120E030E040E8FA
:100150005FE391D3882304F120E03FEF4FE757E4BA
:10016000C701B60142D418169CF420E030E040E20A
:1001700051E4C501B4013DD482D306C080E991E0C9
:100180000197F1F76150710961157105B9F709C05F
:10019000C701B60174D302C061E070E0CB010197E2
:1001A000F1F78FEF88B920E030E040E85FE3C70166
:1001B000B60161D3882304F120E03FEF4FE757E415
:1001C000C701B60112D418169CF420E030E040E2DA
:1001D00051E4C501B4010DD452D306C080E991E0C9
:1001E0000197F1F76150710961157105B9F709C0FF
:1001F000C701B60144D302C061E070E0CB010197B2
:10020000F1F72196C330D1050CF48FCFDF91CF9158
:100210001F910F91FF90EF90DF90CF90BF90AF9024
:100220009F908F9008958F929F92AF92BF92CF929E
:10023000DF92EF92FF920F931F93CF93DF938C0186
:10024000C0E0D0E06EC08AEA88B9B801012E000C87
:10025000880B990B42D34B015C0120E030E04AE768
:1002600055E4C7D36B017C0120E030E040E85FE358
:1002700002D3882304F120E03FEF4FE757E4C701A2
:10028000B601B3D318169CF420E030E040E251E40C
:10029000C501B401AED3F3D206C080E991E0019765
:1002A000F1F76150710961157105B9F709C0C7010E
:1002B000B601E5D202C061E070E0CB010197F1F731
:1002C00085E588B920E030E040E85FE3C701B6018A
:1002D000D2D2882304F120E03FEF4FE757E4C70173
:1002E000B60183D318169CF420E030E040E251E4DC
:1002F000C501B4017ED3C3D206C080E991E0019765
:10030000F1F76150710961157105B9F709C0C701AD
:10031000B601B5D202C061E070E0CB010197F1F700
:100320002196C330D1050CF48ECFC0E0D0E06EC072
:1003300080EF88B9B801012E000C880B990BCDD243
:100340004B015C0120E030E04AE755E452D36B01F9
:100350007C0120E030E040E85FE38DD2882304F1A7
:1003600020E03FEF4FE757E4C701B6013ED3181630
:100370009CF420E030E040E251E4C501B40139D3FF
:100380007ED206C080E991E00197F1F761507109D2
:1003900061157105B9F709C0C701B60170D202C075
:1003A00061E070E0CB010197F1F78FE088B920E0C0
:1003B00030E040E85FE3C701B6015DD2882304F175
:1003C00020E03FEF4FE757E4C701B6010ED3181600
:1003D0009CF420E030E040E251E4C501B40109D3CF
:1003E0004ED206C080E991E00197F1F761507109A2
:1003F00061157105B9F709C0C701B60140D202C045
:1004000061E070E0CB010197F1F72196C330D1058F
:100410000CF48ECFC0E0D0E06EC083EC88B9B80198
:10042000012E000C880B990B58D24B015C0120E087
:1004300030E04AE755E4DDD26B017C0120E030E09A
:1004400040E85FE318D2882304F120E03FEF4FE754
:1004500057E4C701B601C9D218169CF420E030E079
:1004600040E251E4C501B401C4D209D206C080E91A
:1004700091E00197F1F76150710961157105B9F7C4
:1004800009C0C701B601FBD102C061E070E0CB0139
:100490000197F1F78CE388B920E030E040E85FE3B2
:1004A000C701B601E8D1882304F120E03FEF4FE710
:1004B00057E4C701B60199D218169CF420E030E049
:1004C00040E251E4C501B40194D2D9D106C080E91B
:1004D00091E00197F1F76150710961157105B9F764
:1004E00009C0C701B601CBD102C061E070E0CB0109
:1004F0000197F1F72196C330D1050CF48ECFDF912F
:10050000CF911F910F91FF90EF90DF90CF90BF9010
:10051000AF909F908F9008954F925F926F927F92CD
:100520008F929F92AF92BF92EF92FF920F931F9381
:10053000CF93DF938C01E12CF12CA5C081E090E0FA
:100540000C2E02C0880F991F0A94E2F7809588B993
:10055000C730D10509F43BC0B801012E000C880B4F
:10056000990BBBD12B013C0120E030E04AE755E478
:1005700040D24B015C0120E030E040E85FE37BD1FA
:10058000882304F120E03FEF4FE757E4C501B401B1
:100590002CD218169CF420E030E040E251E4C30174
:1005A000B20127D26CD106C080E991E00197F1F742
:1005B0006150710961157105B9F709C0C501B40130
:1005C0005ED102C061E070E0CB010197F1F72196A6
:1005D00002C0C0E0D0E0C830D1050CF4AFCFC0E01D
:1005E000D0E04AC080E890E00C2E02C09595879537
:1005F0000A94E2F7809588B9C730D10509F43BC069
:10060000B801012E000C880B990B67D12B013C011E
:1006100020E030E04AE755E4ECD14B015C0120E0FA
:1006200030E040E85FE327D1882304F120E03FEF8A
:100630004FE757E4C501B401D8D118169CF420E067
:1006400030E040E251E4C301B201D3D118D106C079
:1006500080E991E00197F1F7615071096115710529
:10066000B9F709C0C501B4010AD102C061E070E068
:10067000CB010197F1F72196C830D1050CF4B2CF28
:100680008FEFE81AF80A23E0E216F1040CF4A1CF88
:10069000DF91CF911F910F91FF90EF90BF90AF909E
:1006A0009F908F907F906F905F904F9008951F92D2
:1006B0000F920FB60F9211240BB60F922F933F9308
:1006C0004F935F936F937F938F939F93AF93BF935A
:1006D000EF93FF93F8948CB384608CBB789488EC90
:1006E00090E013DDFF91EF91BF91AF919F918F91BA
:1006F0007F916F915F914F913F912F910F900BBE22
:100700000F900FBE0F901F9018951F920F920FB66B
:100710000F9211240BB60F922F933F934F935F9339
:100720006F937F938F939F93AF93BF93EF93FF93B9
:10073000F8948CB380618CBB789488EC90E0ECDE0C
:10074000FF91EF91BF91AF919F918F917F916F91A9
:100750005F914F913F912F910F900BBE0F900FBE65
:100760000F901F9018951F920F920FB60F921124A1
:100770000BB60F922F933F934F935F936F937F939B
:100780008F939F93AF93BF93EF93FF93F8948CB3A2
:1007900080628CBB789488EC90E045DDFF91EF910E
:1007A000BF91AF919F918F917F916F915F914F9189
:1007B0003F912F910F900BBE0F900FBE0F901F9087
:1007C00018951F920F920FB60F9211240BB60F922D
:1007D0002F933F934F935F936F937F938F939F9349
:1007E000AF93BF93EF93FF9388EE93E005C0E0E9EA
:1007F000F1E03197F1F701970097C9F7F8948091EC
:100800000601789480FD04C088EC90E085DE0BC082
:1008100081FD04C088EC90E078DC05C082FD03C057
:1008200088EC90E000DD8BB384608BBBFF91EF918F
:10083000BF91AF919F918F917F916F915F914F91F8
:100840003F912F910F900BBE0F900FBE0F901F90F6
:100850001895F89484E0809368008BBB87E08093C0
:100860006D008FEF88B987B9E7E0F1E08081887F7C
:1008700080837894FFCF6CD008F481E0089594D001
:1008800088F09F5790F0B92F9927B751A0F0D1F079
:10089000660F771F881F991F1AF0BA95C9F712C003
:1008A000B13081F09BD0B1E0089598C0672F782FC8
:1008B0008827B85F39F0B93FCCF38695779567956F
:1008C000B395D9F73EF490958095709561957F4FDB
:1008D0008F4F9F4F0895E89409C097FB3EF4909581
:1008E0008095709561957F4F8F4F9F4F9923A9F009
:1008F000F92F96E9BB279395F69587957795679598
:10090000B795F111F8CFFAF4BB0F11F460FF1BC0DB
:100910006F5F7F4F8F4F9F4F16C0882311F096E96E
:1009200011C0772321F09EE8872F762F05C066231C
:1009300071F096E8862F70E060E02AF09A95660FD5
:10094000771F881FDAF7880F9695879597F908958E
:10095000990F0008550FAA0BE0E8FEEF16161706D0
:10096000E807F907C0F012161306E407F50798F038
:10097000621B730B840B950B39F40A2661F0232B51
:10098000242B252B21F408950A2609F4A140A695CD
:100990008FEF811D811D089557FD9058440F551FFD
:1009A00059F05F3F71F04795880F97FB991F61F0F1
:1009B0009F3F79F087950895121613061406551F68
:1009C000F2CF4695F1DF08C0161617061806991FD4
:1009D000F1CF86957105610508940895E894BB27C9
:1009E00066277727CB0197F90895B2DF08F48FEFD8
:1009F00008950BD078C069D028F06ED018F09523F8
:100A000009F05AC05FC01124EACFC6DFA0F3959F5A
:100A1000D1F3950F50E0551F629FF001729FBB27E5
:100A2000F00DB11D639FAA27F00DB11DAA1F649F91
:100A30006627B00DA11D661F829F2227B00DA11D44
:100A4000621F739FB00DA11D621F839FA00D611DCA
:100A5000221F749F3327A00D611D231F849F600DEB
:100A6000211D822F762F6A2F11249F5750408AF024
:100A7000E1F088234AF0EE0FFF1FBB1F661F771FB0
:100A8000881F91505040A9F79E3F510570F014C047
:100A9000A6CF5F3FECF3983EDCF38695779567959C
:100AA000B795F795E7959F5FC1F7FE2B880F911DCE
:100AB0009695879597F9089597F99F6780E870E074
:100AC00060E008959FEF80EC089500240A941616C4
:100AD000170618060906089500240A94121613062C
:100AE000140605060895092E0394000C11F48823BA
:100AF00052F0BB0F40F4BF2B11F460FF04C06F5FD6
:0C0B00007F4F8F4F9F4F0895F894FFCF58
:00000001FF
