:1000000071C0000079C0000077C0000075C000001A
:1000100073C0000071C000006FC000006DC0000020
:100020006BC0000069C0000067C0000065C0000030
:1000300063C0000061C000005FC000005DC0000040
:100040005BC0000059C0000057C0000055C0000050
:1000500053C0000051C000004FC000004DC0000060
:100060004BC0000049C0000047C0000045C0000070
:1000700043C0000041C000003FC000003DC0000080
:100080003BC0000039C0000037C0000035C0000090
:1000900033C0000031C000002FC000002DC00000A0
:1000A0002BC0000029C0000027C0000025C00000B0
:1000B00023C0000021C000001FC000001DC00000C0
:1000C0001BC0000019C0000017C0000015C00000D0
:1000D00013C0000011C000000FC000000DC00000E0
:1000E0000BC0000011241FBECFEFD1E2DEBFCDBF99
:1000F00000E00CBFEED23EC483CF8F929F92AF92AE
:10010000BF92CF92DF92EF92FF920F931F93CF9304
:10011000DF938C01C0E0D0E070C018B812B8B8010D
:10012000012E000C880B990B0ED34B015C0120E0D3
:1001300030E04AE755E493D36B017C0120E030E0E6
:1001400040E85FE3CED2882304F120E03FEF4FE7A1
:1001500057E4C701B6017FD318169CF420E030E0C5
:1001600040E251E4C501B4017AD3BFD206C080E9B0
:1001700091E00197F1F76150710961157105B9F7C7
:1001800009C0C701B601B1D202C061E070E0CB0185
:100190000197F1F78FE088B980EF82B920E030E075
:1001A00040E85FE3C701B6019CD2882304F120E058
:1001B0003FEF4FE757E4C701B6014DD318169CF443
:1001C00020E030E040E251E4C501B40148D38DD2D3
:1001D00006C080E991E00197F1F76150710961155E
:1001E0007105B9F709C0C701B6017FD202C061E04D
:1001F00070E0CB010197F1F72196C330D1050CF4E3
:100200008CCFDF91CF911F910F91FF90EF90DF90F6
:10021000CF90BF90AF909F908F9008958F929F92B4
:10022000AF92BF92CF92DF92EF92FF920F931F9304
:10023000CF93DF938C01C0E0D0E072C08AE088B930
:1002400080EA82B9B801012E000C880B990B7BD291
:100250004B015C0120E030E04AE755E400D36B013C
:100260007C0120E030E040E85FE33BD2882304F1EA
:1002700020E03FEF4FE757E4C701B601ECD2181674
:100280009CF420E030E040E251E4C501B401E7D243
:100290002CD206C080E991E00197F1F76150710915
:1002A00061157105B9F709C0C701B6011ED202C0B8
:1002B00061E070E0CB010197F1F780E582B985E05C
:1002C00088B920E030E040E85FE3C701B60109D219
:1002D000882304F120E03FEF4FE757E4C701B60160
:1002E000BAD218169CF420E030E040E251E4C50197
:1002F000B401B5D2FAD106C080E991E00197F1F7D7
:100300006150710961157105B9F709C0C701B601DE
:10031000ECD102C061E070E0CB010197F1F72196CA
:10032000C330D1050CF48ACFC0E0D0E070C018B85B
:1003300080EF82B9B801012E000C880B990B03D213
:100340004B015C0120E030E04AE755E488D26B01C4
:100350007C0120E030E040E85FE3C3D1882304F172
:1003600020E03FEF4FE757E4C701B60174D21816FB
:100370009CF420E030E040E251E4C501B4016FD2CA
:10038000B4D106C080E991E00197F1F7615071099D
:1003900061157105B9F709C0C701B601A6D102C040
:1003A00061E070E0CB010197F1F78FE088B912B8F6
:1003B00020E030E040E85FE3C701B60192D1882336
:1003C00004F120E03FEF4FE757E4C701B60143D205
:1003D00018169CF420E030E040E251E4C501B4017D
:1003E0003ED283D106C080E991E00197F1F76150D8
:1003F000710961157105B9F709C0C701B60175D159
:1004000002C061E070E0CB010197F1F72196C330A3
:10041000D1050CF48CCFC0E0D0E072C083E088B985
:1004200080EC82B9B801012E000C880B990B8BD19E
:100430004B015C0120E030E04AE755E410D26B014B
:100440007C0120E030E040E85FE34BD1882304F1F9
:1004500020E03FEF4FE757E4C701B601FCD1181683
:100460009CF420E030E040E251E4C501B401F7D152
:100470003CD106C080E991E00197F1F76150710924
:1004800061157105B9F709C0C701B6012ED102C0C7
:1004900061E070E0CB010197F1F78CE088B980E36F
:1004A00082B920E030E040E85FE3C701B60119D12E
:1004B000882304F120E03FEF4FE757E4C701B6017E
:1004C000CAD118169CF420E030E040E251E4C501A6
:1004D000B401C5D10AD106C080E991E00197F1F7D6
:1004E0006150710961157105B9F709C0C701B601FD
:1004F000FCD002C061E070E0CB010197F1F72196DA
:10050000C330D1050CF48ACFDF91CF911F910F91A9
:10051000FF90EF90DF90CF90BF90AF909F908F9023
:1005200008954F925F926F927F928F929F92AF92B7
:10053000BF92EF92FF920F931F93CF93DF938C01A3
:10054000E12CF12CA7C081E090E00C2E02C0880FB6
:10055000991F0A94E2F7809582B988B9C730D1050E
:1005600009F43BC0B801012E000C880B990BEBD0AD
:100570002B013C0120E030E04AE755E470D14B010B
:100580005C0120E030E040E85FE3ABD0882304F179
:1005900020E03FEF4FE757E4C501B4015CD11816E6
:1005A0009CF420E030E040E251E4C301B20157D1B5
:1005B0009CD006C080E991E00197F1F76150710984
:1005C00061157105B9F709C0C501B4018ED002C02B
:1005D00061E070E0CB010197F1F7219602C0C0E025
:1005E000D0E0C830D1050CF4AECFC0E0D0E04BC0B5
:1005F00080E890E00C2E02C0959587950A94E2F76A
:10060000809582B988B9C730D10509F43BC0B801DB
:10061000012E000C880B990B96D02B013C0120E099
:1006200030E04AE755E41BD14B015C0120E030E0AB
:1006300040E85FE356D0882304F120E03FEF4FE726
:1006400057E4C501B40107D118169CF420E030E04E
:1006500040E251E4C301B20102D147D006C080E9B3
:1006600091E00197F1F76150710961157105B9F7D2
:1006700009C0C501B40139D002C061E070E0CB010E
:100680000197F1F72196C830D1050CF4B1CF8FEF67
:10069000E81AF80A25E0E216F1040CF4A0CFDF9185
:1006A000CF911F910F91FF90EF90BF90AF909F90CF
:1006B0008F907F906F905F904F900895CF93DF93CE
:1006C000EC011BDDCE01AADDCE012BDFDF91CF9146
:1006D00008958FE087B980EF81B988EC90E0EEDF74
:1006E000FCCF6CD008F481E0089594D088F09F5737
:1006F00090F0B92F9927B751A0F0D1F0660F771F6E
:10070000881F991F1AF0BA95C9F712C0B13081F04D
:100710009BD0B1E0089598C0672F782F8827B85FE5
:1007200039F0B93FCCF3869577956795B395D9F7AE
:100730003EF490958095709561957F4F8F4F9F4FB8
:100740000895E89409C097FB3EF4909580957095C4
:1007500061957F4F8F4F9F4F9923A9F0F92F96E90D
:10076000BB279395F695879577956795B795F11182
:10077000F8CFFAF4BB0F11F460FF1BC06F5F7F4F1F
:100780008F4F9F4F16C0882311F096E911C0772331
:1007900021F09EE8872F762F05C0662371F096E83A
:1007A000862F70E060E02AF09A95660F771F881F09
:1007B000DAF7880F9695879597F90895990F0008AD
:1007C000550FAA0BE0E8FEEF16161706E807F90723
:1007D000C0F012161306E407F50798F0621B730BBE
:1007E000840B950B39F40A2661F0232B242B252B3F
:1007F00021F408950A2609F4A140A6958FEF811DE2
:10080000811D089557FD9058440F551F59F05F3FC3
:1008100071F04795880F97FB991F61F09F3F79F022
:1008200087950895121613061406551FF2CF4695A4
:10083000F1DF08C0161617061806991FF1CF869526
:100840007105610508940895E894BB27662777270A
:10085000CB0197F90895B2DF08F48FEF08950BD01C
:1008600078C069D028F06ED018F0952309F05AC0EE
:100870005FC01124EACFC6DFA0F3959FD1F3950F97
:1008800050E0551F629FF001729FBB27F00DB11D14
:10089000639FAA27F00DB11DAA1F649F6627B00DA4
:1008A000A11D661F829F2227B00DA11D621F739F8D
:1008B000B00DA11D621F839FA00D611D221F749F9B
:1008C0003327A00D611D231F849F600D211D822FE2
:1008D000762F6A2F11249F5750408AF0E1F0882329
:1008E0004AF0EE0FFF1FBB1F661F771F881F915036
:1008F0005040A9F79E3F510570F014C0A6CF5F3F4E
:10090000ECF3983EDCF3869577956795B795F79568
:10091000E7959F5FC1F7FE2B880F911D96958795F0
:1009200097F9089597F99F6780E870E060E008956F
:100930009FEF80EC089500240A94161617061806F7
:100940000906089500240A941216130614060506D3
:100950000895092E0394000C11F4882352F0BB0F64
:1009600040F4BF2B11F460FF04C06F5F7F4F8F4FC7
:080970009F4F0895F894FFCF9A
:00000001FF
