:1000000071C000008EC000008CC000008AC00000DB
:1000100088C00000A9C00000F1C0000082C000003C
:1000200080C000007EC000007CC000007AC00000DC
:1000300078C0000076C0000074C0000072C00000EC
:1000400070C000006EC000006CC000006AC00000FC
:1000500068C0000066C0000064C0000062C000000C
:1000600060C000005EC000005CC000005AC000001C
:1000700058C0000056C0000054C0000052C000002C
:1000800050C000004EC000004CC000004AC000003C
:1000900048C0000046C0000044C0000042C000004C
:1000A00040C000003EC000003CC000003AC000005C
:1000B00038C0000036C0000034C0000032C000006C
:1000C00030C000002EC000002CC000002AC000007C
:1000D00028C0000026C0000024C0000022C000008C
:1000E00020C0000011241FBECFEFD1E2DEBFCDBF84
:1000F00000E00CBF12E0A0E0B2E0ECEBFBE000E0BF
:100100000BBF02C007900D92A639B107D9F723E0C3
:10011000A6E9B2E001C01D92AC31B207E1F700D10F
:100120004BC56ECF9091C80095FFFCCF8093CE0059
:100130000895EF92FF920F931F93CF93DF937C016B
:100140008B01C0E0D0E006C0F701EC0FFD1F8081FD
:10015000E9DF2196C017D107BCF3DF91CF911F9142
:100160000F91FF90EF9008951F920F920FB60F928C
:1001700011240BB60F922F933F934F935F936F937E
:100180007F938F939F93AF93BF93EF93FF93F894D5
:100190002FEF81EE94E0215080409040E1F700C0C5
:1001A00000008EE190E012D12EE1FC0111922A951F
:1001B000E9F78CE090E09093970280939602E6E056
:1001C000F2E0A8E9B2E001900D928A95E1F78CB3D4
:1001D00080618CBB7894FF91EF91BF91AF919F911B
:1001E0008F917F916F915F914F913F912F910F90E0
:1001F0000BBE0F900FBE0F901F9018951F920F927D
:100200000FB60F9211240BB60F922F933F934F937B
:100210005F936F937F938F939F93AF93BF93EF936E
:10022000FF93F8942FEF81EE94E0215080409040AE
:10023000E1F700C000008EE190E0C8D02EE1FC01A3
:1002400011922A95E9F78CE090E0909397028093C1
:100250009602E3E1F2E0A8E9B2E001900D928A95FE
:10026000E1F78CB380628CBB7894FF91EF91BF91E2
:10027000AF919F918F917F916F915F914F913F913E
:100280002F910F900BBE0F900FBE0F901F901895DF
:100290000F931F93CF93DF93CDB7DEB7C058D1092B
:1002A0000FB6F894DEBF0FBECDBF80E008C0E1E01E
:1002B000F0E0EC0FFD1FE80FF11D10828F5F882327
:1002C000B4F7AE0146575F4FC857DF4F6881798159
:1002D000C858D0408E010F5F1F4FC80198D1F80158
:1002E00001900020E9F731978E2F801B082F10E036
:1002F00009C0E1E0F0E0EC0FFD1FE10FF11D80818E
:1003000011DF1F5F1017A8F3C058DF4F0FB6F89426
:10031000DEBF0FBECDBFDF91CF911F910F9108952A
:10032000F8948DB18F7C8DB98FE080936A0080E363
:100330008DBB8CB380638CBB1092CD0087E680931D
:10034000CC0088E18093C90086E08093CA0078944D
:10035000C0E2D2E0DF93CF939BDF89E592E09F93E9
:100360008F9396DF1F9284EF8F9384E28F931F9277
:1003700080E792E09F938F938BDF8DB31F928F93D3
:1003800083E892E09F938F9383DFDF93CF9380DFA7
:100390008DB79EB740960FB6F8949EBF0FBE8DBF27
:1003A000609196027091970216161706CCF788E9AD
:1003B00092E0BFDE80E8E8E9F2E0DF011D928A9575
:1003C000E9F71092970210929602EACF0F931F93CB
:1003D000CF93DF938230910510F482E090E0E091BA
:1003E0001A03F0911B0320E030E0A0E0B0E030976A
:1003F00019F1408151810281138148175907C8F0D2
:100400008417950769F4109731F012960C931297A0
:1004100013961C9327C000931A0310931B0322C04A
:100420002115310519F04217530718F49A01BD013F
:10043000EF01DF01F801DBCF21153105F9F0281BB1
:10044000390B2430310580F48A819B816115710557
:1004500021F0FB019383828304C090931B0380935C
:100460001A03FE01329644C0FE01E20FF31F81938E
:10047000919322503109398328833AC0209118037F
:1004800030911903232B41F4209102023091030291
:100490003093190320931803209100023091010238
:1004A0002115310541F42DB73EB74091040250911A
:1004B0000502241B350BE0911803F0911903E21794
:1004C000F307A0F42E1B3F0B2817390778F0AC0177
:1004D0004E5F5F4F2417350748F04E0F5F1F509354
:1004E0001903409318038193919302C0E0E0F0E078
:1004F000CF01DF91CF911F910F910895CF93DF939B
:10050000009709F481C0FC01329713821282A091F6
:100510001A03B0911B03109781F420813181820F5F
:10052000931F20911803309119032817390751F5AB
:10053000F0931903E093180367C0ED0120E030E069
:10054000CE17DF0740F44A815B819E0141155105BA
:10055000F1F0EA01F5CFD383C28340815181840F4A
:10056000951FC817D90759F488819981840F951F61
:100570000296918380838A819B8193838283211554
:10058000310529F4F0931B03E0931A033DC0E90100
:10059000FB83EA8349915991C40FD51FEC17FD07DE
:1005A00061F480819181840F951F0296E9019983FE
:1005B0008883828193819B838A83E0E0F0E01296B6
:1005C0008D919C911397009719F0FD01DC01F7CFF5
:1005D0008D919C9111979D012E5F3F4F820F931F2C
:1005E00020911803309119032817390769F43097BF
:1005F00029F410921B0310921A0302C01382128274
:10060000B0931903A0931803DF91CF9108950F932E
:100610001F93CF93DF93CDB7DEB72E970FB6F89425
:10062000DEBF0FBECDBF8C0186E08C831A830983A9
:100630008FEF9FE79E838D83CE01019610D0EF81CF
:10064000F885E00FF11F10822E960FB6F894DEBFEA
:100650000FBECDBFDF91CF911F910F9108952F92C3
:100660003F924F925F926F927F928F929F92AF9242
:10067000BF92CF92DF92EF92FF920F931F93CF938F
:10068000DF93CDB7DEB72B970FB6F894DEBF0FBE62
:10069000CDBF6C017B018A01FC0117821682838128
:1006A00081FFBFC1CE0101963C01F6019381F701A4
:1006B00093FD859193FF81917F01882309F4ADC15A
:1006C000853239F493FD859193FF81917F018532C5
:1006D00021F4B60190E0D6D1E8CF912C212C312C19
:1006E000FFE1F315D8F08B3279F038F4803279F0ED
:1006F0008332A1F4232D20611DC08D3261F080333F
:1007000069F4232D216016C0832D8260382EE32DDD
:10071000E4603E2E2AC0F32DF8601DC037FC2DC0CA
:1007200020ED280F2A3040F08E32B9F436FC75C126
:10073000232D2064322E19C036FE06C08AE0989E12
:10074000200D1124922E11C0EAE02E9E200D1124BE
:10075000222EF32DF0623F2E08C08C3621F4832D1B
:100760008068382E02C0883641F4F70193FD8591E8
:1007700093FF81917F018111B3CF982F9F7D955475
:10078000933028F40C5F1F4F9FE399830DC083368D
:1007900031F0833771F0833509F055C020C0F8017E
:1007A000808189830E5F1F4F88248394912C53018D
:1007B00012C02801F2E04F0E511CF801A080B18058
:1007C00036FE03C0692D70E002C06FEF7FEFC501F8
:1007D0004ED14C018201F32DFF773F2E15C0280129
:1007E00022E0420E511CF801A080B18036FE03C009
:1007F000692D70E002C06FEF7FEFC5012DD14C0174
:10080000F32DF0683F2E820133FC19C0822D90E059
:1008100088169906A0F4B60180E290E033D12A94BC
:10082000F5CFF50137FC859137FE81915F01B60167
:1008300090E028D121102A9421E0821A9108811495
:10084000910479F7E1C0843611F0893639F5F80161
:1008500037FE07C060817181828193810C5F1F4FD9
:1008600008C060817181072E000C880B990B0E5F08
:100870001F4FF32DFF763F2E97FF09C0909580956F
:10088000709561957F4F8F4F9F4FF0683F2E2AE004
:1008900030E0A30133D1882E861844C0853731F467
:1008A000232D2F7EB22E2AE030E025C0932D997F94
:1008B000B92E8F36C1F018F4883579F0AEC0803784
:1008C00019F0883721F0A9C0E92FE061BE2EB4FEEF
:1008D0000DC0FB2DF460BF2E09C034FE0AC0292FC5
:1008E0002660B22E06C028E030E005C020E130E0EE
:1008F00002C020E132E0F801B7FE07C060817181DB
:10090000828193810C5F1F4F06C06081718180E0FE
:1009100090E00E5F1F4FA301F1D0882E8618FB2DAB
:10092000FF773F2E36FE0DC0232D2E7FA22E891479
:1009300058F434FE0BC032FC09C0832D8E7EA82EE5
:1009400005C0B82CA32C03C0B82C01C0B92CA4FE40
:100950000FC0FE01E80DF11D8081803321F49A2D36
:10096000997EA92E09C0A2FE06C0B394B39404C018
:100970008A2D867809F0B394A3FC10C0A0FE06C0AF
:10098000B21480F4280C922C9B180DC0B21458F4A9
:10099000B60180E290E076D0B394F8CFB21418F4A8
:1009A0002B1802C0982C212CA4FE0FC0B60180E3A6
:1009B00090E068D0A2FE16C0A1FC03C088E790E0DA
:1009C00002C088E590E0B6010CC08A2D867851F00F
:1009D000A1FE02C08BE201C080E2A7FC8DE2B6015D
:1009E00090E050D0891430F4B60180E390E04AD012
:1009F0009A94F8CF8A94F301E80DF11D8081B60135
:100A000090E040D08110F6CF222009F44ECEB601FE
:100A100080E290E037D02A94F7CFF6018681978163
:100A200002C08FEF9FEF2B960FB6F894DEBF0FBE7C
:100A3000CDBFDF91CF911F910F91FF90EF90DF908D
:100A4000CF90BF90AF909F908F907F906F905F906E
:100A50004F903F902F900895FC0105906150704099
:100A60000110D8F7809590958E0F9F1F0895FC0177
:100A70006150704001900110D8F7809590958E0FCD
:100A80009F1F08950F931F93CF93DF93FB01238143
:100A900021FD03C08FEF9FEF2CC022FF16C04681BF
:100AA0005781248135814217530744F4A081B181D5
:100AB0009D012F5F3F4F318320838C9326813781A7
:100AC0002F5F3F4F3783268314C08B01EC01FB015E
:100AD0000084F185E02D1995892BE1F6D801169651
:100AE0008D919C911797019617969C938E931697CC
:100AF000CE01DF91CF911F910F910895FA01AA279E
:100B0000283051F1203181F1E8946F936E7F6E5F50
:100B10007F4F8F4F9F4FAF4FB1E03ED0B4E03CD0FE
:100B2000670F781F891F9A1FA11D680F791F8A1FE1
:100B3000911DA11D6A0F711D811D911DA11D20D048
:100B400009F468943F912AE0269F11243019305D02
:100B50003193DEF6CF010895462F4770405D4193F3
:100B6000B3E00FD0C9F7F6CF462F4F70405D4A3340
:100B700018F0495D31FD4052419302D0A9F7EACF08
:100B8000B4E0A6959795879577956795BA95C9F737
:100B900000976105710508959B01AC010A2E06942A
:100BA0005795479537952795BA95C9F7620F731FE3
:0C0BB000841F951FA01D0895F894FFCF2E
:100BBC0000001C032000494E543420505553484526
:100BCC00440A00494E5435205055534845440A00B8
:100BDC002A2A2A2A2A2A2A2A2A2A2A2A2A2A2A2A69
:100BEC002A2A2A2A2A2A2A2A2A2A2A2A2A2A2A2A59
:100BFC002A2A2A2A2A2A2A2A2A2A2A2A2A2A2A2A49
:100C0C002A2A2A2A2A2A2A0A0041565220535953A0
:100C1C0054454D20696E6974204F4B2E2E2E0A00C0
:100C2C00436C6F636B205370656564203D20256CAD
:100C3C00640A00496E7465727275707473203D207D
:060C4C00307825780A0053
:00000001FF
