S00C0000313130372E737265634F
S113000071C0000079C0000077C0000075C0000016
S113001073C0000071C000006FC000006DC000001C
S11300206BC0000069C0000067C0000065C000002C
S113003063C0000061C000005FC000005DC000003C
S11300405BC0000059C0000057C0000055C000004C
S113005053C0000051C000004FC000004DC000005C
S11300604BC0000049C0000047C0000045C000006C
S113007043C0000041C000003FC000003DC000007C
S11300803BC0000039C0000037C0000035C000008C
S113009033C0000031C000002FC000002DC000009C
S11300A02BC0000029C0000027C0000025C00000AC
S11300B023C0000021C000001FC000001DC00000BC
S11300C01BC0000019C0000017C0000015C00000CC
S11300D013C0000011C000000FC000000DC00000DC
S11300E00BC0000011241FBECFEFD1E2DEBFCDBF95
S11300F000E00CBF1AD092C083CFCF93DF9300D01F
S11301001F92CDB7DEB769837A838B839C8341E0EA
S113011050E0BE016F5F7F4F86E045D00F900F9097
S11301200F900F90DF91CF91089584B1806484B9CA
S1130130812C6894992497F8A12CB12CC12CD12C32
S11301406894EE24E7F8F12C00E810E0D0E0C0E079
S1130150682D792D8A2D9B2DD0DF2FEF8CE190E136
S1130160215080409040E1F700C00000602F712FC3
S11301708D2F9C2FC2DF2FEF8CE190E12150804026
S11301809040E1F700C000006C2D7D2D8E2D9F2D39
S1130190B4DF2FEF8CE190E1215080409040E1F7F3
S11301A000C00000D5CFFB0121E030E0B90102C05E
S11301B0660F771F8A95E2F7CB01440F551F440F52
S11301C0551F94B1982B94B995B1782F70957923D4
S11301D065B1682BAFB716C09F012F5F3F4F4081B9
S11301E058E0E89465B9000006F447FF75B9440F78
S11301F0000006F406F406F475B906F45A9591F76E
S1130200AC01F901CA010197452B31F7AFBF8FE863
S113021091E00197F1F700C000000895F894FFCF32
S9030000FC
