S00C0000313132392E737265634B
S113000071C0000081C000007FC000007DC00000FE
S11300107BC0000079C0000077C0000075C00000FC
S113002073C0000071C000006FC000006DC000000C
S11300306BC0000069C0000067C0000065C000001C
S113004063C0000061C000005FC000005DC000002C
S11300505BC0000059C0000057C0000055C000003C
S113006053C0000051C000004FC000004DC000004C
S11300704BC0000049C0000047C0000045C000005C
S113008043C0000041C000003FC000003DC000006C
S11300903BC0000039C0000037C0000035C000007C
S11300A033C0000031C000002FC000002DC000008C
S11300B02BC0000029C0000027C0000025C000009C
S11300C023C0000021C000001FC000001DC00000AC
S11300D01BC0000019C0000017C0000015C00000BC
S11300E013C0000011241FBECFEFD1E2DEBFCDBF8D
S11300F000E00CBF22E0A0E0B2E001C01D92A030FD
S1130100B207E1F74FD06AC07BCFCF93DF931F9242
S11301101F92CDB7DEB7ECE7F0E080838081806486
S11301208083EAE7F0E087E88083808180648083CD
S113013080917A0084FFFCCF80EB94E00197F1F783
S1130140209178008091790090E0982F8827820F81
S1130150911D9A83898310927A0089819A810F90E4
S11301600F90DF91CF910895BC018FEF88B940E0E3
S113017050E00EC098B121E030E0042E02C0220FFE
S1130180331F0A94E2F72095292328B94F5F5F4F64
S11301909B01220F232F221F330B31952417350780
S11301A048F708951092CD0087E68093CC0088E14B
S11301B08093C90086E08093CA008FEF87B988B91D
S11301C080E0A3DFD1DF88E893E105C0E0E9F1E056
S11301D03197F1F701970097C9F7F2CFF894FFCF61
S9030000FC
