:1000000071C000008EC000008CC000008AC00000DB
:1000100088C0000086C0000084C0000082C00000CC
:1000200080C000007EC000007CC000007AC00000DC
:1000300078C0000076C0000074C0000072C00000EC
:1000400070C000006EC000006CC000006AC00000FC
:1000500068C0000066C0000064C0000062C000000C
:1000600060C000005EC000005CC000005AC000001C
:1000700058C0000056C0000054C0000052C000002C
:1000800050C000004EC000004CC000004AC000003C
:100090006AC3000046C0000044C0000042C0000027
:1000A00040C000003EC000003CC000003AC000005C
:1000B00038C0000036C0000034C0000032C000006C
:1000C00030C000002EC000002CC000002AC000007C
:1000D00028C0000026C0000024C0000022C000008C
:1000E00020C0000011241FBECFEFD1E2DEBFCDBF84
:1000F00000E00CBF12E0A0E0B2E0ECEFF0E100E0C5
:100100000BBF02C007900D92A232B107D9F722E0CF
:10011000A2E2B2E001C01D92A732B207E1F79FD37D
:10012000EBC76ECF8F929F92AF92BF92CF92DF922A
:10013000EF92FF920F931F93CF93DF938C01C0E058
:10014000D0E06DC018B8B801012E000C880B990BD7
:10015000E7D34B015C0120E030E04AE755E46CD482
:100160006B017C0120E030E040E85FE3A7D3882307
:1001700004F120E03FEF4FE757E4C701B60158D440
:1001800018169CF420E030E040E251E4C501B401CF
:1001900053D498D306C080E991E00197F1F76150FC
:1001A000710961157105B9F709C0C701B6018AD394
:1001B00002C061E070E0CB010197F1F78FEF88B9E1
:1001C00020E030E040E85FE3C701B60177D3882341
:1001D00004F120E03FEF4FE757E4C701B60128D410
:1001E00018169CF420E030E040E251E4C501B4016F
:1001F00023D468D306C080E991E00197F1F76150FC
:10020000710961157105B9F709C0C701B6015AD363
:1002100002C061E070E0CB010197F1F72196C33095
:10022000D1050CF48FCFDF91CF911F910F91FF90EB
:10023000EF90DF90CF90BF90AF909F908F900895F8
:100240008F929F92AF92BF92CF92DF92EF92FF92E6
:100250000F931F93CF93DF938C01C0E0D0E06EC06B
:100260008AEA88B9B801012E000C880B990B58D383
:100270004B015C0120E030E04AE755E4DDD36B013F
:100280007C0120E030E040E85FE318D3882304F1EC
:1002900020E03FEF4FE757E4C701B601C9D3181676
:1002A0009CF420E030E040E251E4C501B401C4D345
:1002B00009D306C080E991E00197F1F76150710917
:1002C00061157105B9F709C0C701B601FBD202C0BB
:1002D00061E070E0CB010197F1F785E588B920E096
:1002E00030E040E85FE3C701B601E8D2882304F1BB
:1002F00020E03FEF4FE757E4C701B60199D3181646
:100300009CF420E030E040E251E4C501B40194D314
:10031000D9D206C080E991E00197F1F761507109E7
:1003200061157105B9F709C0C701B601CBD202C08A
:1003300061E070E0CB010197F1F72196C330D10560
:100340000CF48ECFC0E0D0E06EC080EF88B9B80169
:10035000012E000C880B990BE3D24B015C0120E0CD
:1003600030E04AE755E468D36B017C0120E030E0DF
:1003700040E85FE3A3D2882304F120E03FEF4FE79A
:1003800057E4C701B60154D318169CF420E030E0BE
:1003900040E251E4C501B4014FD394D206C080E9D4
:1003A00091E00197F1F76150710961157105B9F795
:1003B00009C0C701B60186D202C061E070E0CB017E
:1003C0000197F1F78FE088B920E030E040E85FE383
:1003D000C701B60173D2882304F120E03FEF4FE755
:1003E00057E4C701B60124D318169CF420E030E08E
:1003F00040E251E4C501B4011FD364D206C080E9D4
:1004000091E00197F1F76150710961157105B9F734
:1004100009C0C701B60156D202C061E070E0CB014D
:100420000197F1F72196C330D1050CF48ECFC0E0CF
:10043000D0E06EC083EC88B9B801012E000C880BA7
:10044000990B6ED24B015C0120E030E04AE755E4A5
:10045000F3D26B017C0120E030E040E85FE32ED274
:10046000882304F120E03FEF4FE757E4C701B601CE
:10047000DFD218169CF420E030E040E251E4C501E0
:10048000B401DAD21FD206C080E991E00197F1F7FA
:100490006150710961157105B9F709C0C701B6014D
:1004A00011D202C061E070E0CB010197F1F78CE35B
:1004B00088B920E030E040E85FE3C701B601FED133
:1004C000882304F120E03FEF4FE757E4C701B6016E
:1004D000AFD218169CF420E030E040E251E4C501B0
:1004E000B401AAD2EFD106C080E991E00197F1F7FB
:1004F0006150710961157105B9F709C0C701B601ED
:10050000E1D102C061E070E0CB010197F1F72196E3
:10051000C330D1050CF48ECFDF91CF911F910F9195
:10052000FF90EF90DF90CF90BF90AF909F908F9013
:1005300008954F925F926F927F928F929F92AF92A7
:10054000BF92EF92FF920F931F93CF93DF938C0193
:10055000E12CF12CA5C081E090E00C2E02C0880FA8
:10056000991F0A94E2F7809588B9C730D10509F43C
:100570003BC0B801012E000C880B990BD1D12B0187
:100580003C0120E030E04AE755E456D24B015C01E3
:1005900020E030E040E85FE391D1882304F120E0DF
:1005A0003FEF4FE757E4C501B40142D218169CF45F
:1005B00020E030E040E251E4C301B2013DD282D1FB
:1005C00006C080E991E00197F1F76150710961156A
:1005D0007105B9F709C0C501B40174D102C061E069
:1005E00070E0CB010197F1F7219602C0C0E0D0E0A6
:1005F000C830D1050CF4AFCFC0E0D0E04AC080E8ED
:1006000090E00C2E02C0959587950A94E2F78095AC
:1006100088B9C730D10509F43BC0B801012E000CE0
:10062000880B990B7DD12B013C0120E030E04AE79B
:1006300055E402D24B015C0120E030E040E85FE38A
:100640003DD1882304F120E03FEF4FE757E4C50197
:10065000B401EED118169CF420E030E040E251E401
:10066000C301B201E9D12ED106C080E991E0019722
:10067000F1F76150710961157105B9F709C0C5013C
:10068000B40120D102C061E070E0CB010197F1F725
:100690002196C830D1050CF4B2CF8FEFE81AF80AD2
:1006A00023E0E216F1040CF4A1CFDF91CF911F916A
:1006B0000F91FF90EF90BF90AF909F908F907F90A1
:1006C0006F905F904F9008959091C80095FFFCCF78
:1006D0008093CE0008950F931F93CF93DF93CDB7F0
:1006E000DEB7C058D1090FB6F894DEBF0FBECDBF3C
:1006F00080E008C0E1E0F0E0EC0FFD1FE80FF11D25
:1007000010828F5F8823B4F7AE0146575F4FC857FA
:10071000DF4F68817981C858D0408E010F5F1F4F2D
:10072000C80115D2F80101900020E9F731978E2F0A
:10073000801B082F10E009C0E1E0F0E0EC0FFD1F86
:10074000E10FF11D8081C0DF1F5F1017A8F3C058B3
:10075000DF4F0FB6F894DEBF0FBECDBFDF91CF9154
:100760001F910F9108951F920F920FB60F921124AF
:100770000BB60F922F933F934F935F936F937F939B
:100780008F939F93AF93BF93EF93FF93F89480E081
:1007900092E09F938F939FDF2091CE00809125025E
:1007A000909126020F900F90009749F4223039F46F
:1007B00081E090E0909326028093250222C0813050
:1007C000910549F42093220282E090E09093260262
:1007D0008093250216C00297A1F4233039F481E0FA
:1007E00090E0909324028093230207C087E092E078
:1007F0009F938F9370DF0F900F90109226021092AC
:1008000025027894FF91EF91BF91AF919F918F91C5
:100810007F916F915F914F913F912F910F900BBE00
:100820000F900FBE0F901F901895813021F484E631
:1008300090E078CC0895823021F484E690E000CDF9
:100840000895843021F484E690E073CE089581E128
:1008500092E09F938F933FDF0F900F900895F8944D
:100860008DB18F7C8DB98FE080936A0080E38DBB62
:100870008CB380638CBB1092CD0087E68093CC0054
:10088000E9ECF0E088E1808380818068808386E005
:100890008093CA0078948FEF87B988B9809123023A
:1008A00090912402892BD1F380912202BEDF109215
:1008B00024021092230210922202F0CF6CD008F48E
:1008C00081E0089594D088F09F5790F0B92F992730
:1008D000B751A0F0D1F0660F771F881F991F1AF04B
:1008E000BA95C9F712C0B13081F09BD0B1E008953C
:1008F00098C0672F782F8827B85F39F0B93FCCF3BD
:10090000869577956795B395D9F73EF49095809540
:10091000709561957F4F8F4F9F4F0895E89409C060
:1009200097FB3EF490958095709561957F4F8F4F22
:100930009F4F9923A9F0F92F96E9BB279395F69538
:10094000879577956795B795F111F8CFFAF4BB0FB6
:1009500011F460FF1BC06F5F7F4F8F4F9F4F16C01A
:10096000882311F096E911C0772321F09EE8872FA4
:10097000762F05C0662371F096E8862F70E060E060
:100980002AF09A95660F771F881FDAF7880F9695D9
:10099000879597F90895990F0008550FAA0BE0E87D
:1009A000FEEF16161706E807F907C0F01216130631
:1009B000E407F50798F0621B730B840B950B39F471
:1009C0000A2661F0232B242B252B21F408950A26D7
:1009D00009F4A140A6958FEF811D811D089557FD53
:1009E0009058440F551F59F05F3F71F04795880F9D
:1009F00097FB991F61F09F3F79F087950895121634
:100A000013061406551FF2CF4695F1DF08C01616DF
:100A100017061806991FF1CF869571056105089490
:100A20000895E894BB2766277727CB0197F90895A7
:100A3000B2DF08F48FEF08950BD078C069D028F0AA
:100A40006ED018F0952309F05AC05FC01124EACF88
:100A5000C6DFA0F3959FD1F3950F50E0551F629F1D
:100A6000F001729FBB27F00DB11D639FAA27F00D07
:100A7000B11DAA1F649F6627B00DA11D661F829F2E
:100A80002227B00DA11D621F739FB00DA11D621F13
:100A9000839FA00D611D221F749F3327A00D611D30
:100AA000231F849F600D211D822F762F6A2F112412
:100AB0009F5750408AF0E1F088234AF0EE0FFF1F65
:100AC000BB1F661F771F881F91505040A9F79E3F9C
:100AD000510570F014C0A6CF5F3FECF3983EDCF3F5
:100AE000869577956795B795F795E7959F5FC1F7D9
:100AF000FE2B880F911D9695879597F9089597F984
:100B00009F6780E870E060E008959FEF80EC0895B3
:100B100000240A94161617061806090608950024DC
:100B20000A9412161306140605060895092E039456
:100B3000000C11F4882352F0BB0F40F4BF2B11F4CA
:100B400060FF04C06F5F7F4F8F4F9F4F08950F93DB
:100B50001F93CF93DF93CDB7DEB72E970FB6F894E0
:100B6000DEBF0FBECDBF8C0186E08C831A83098364
:100B70008FEF9FE79E838D83CE01019610D0EF818A
:100B8000F885E00FF11F10822E960FB6F894DEBFA5
:100B90000FBECDBFDF91CF911F910F9108952F927E
:100BA0003F924F925F926F927F928F929F92AF92FD
:100BB000BF92CF92DF92EF92FF920F931F93CF934A
:100BC000DF93CDB7DEB72B970FB6F894DEBF0FBE1D
:100BD000CDBF6C017B018A01FC01178216828381E3
:100BE00081FFBFC1CE0101963C01F6019381F7015F
:100BF00093FD859193FF81917F01882309F4ADC115
:100C0000853239F493FD859193FF81917F0185327F
:100C100021F4B60190E0D6D1E8CF912C212C312CD3
:100C2000FFE1F315D8F08B3279F038F4803279F0A7
:100C30008332A1F4232D20611DC08D3261F08033F9
:100C400069F4232D216016C0832D8260382EE32D98
:100C5000E4603E2E2AC0F32DF8601DC037FC2DC085
:100C600020ED280F2A3040F08E32B9F436FC75C1E1
:100C7000232D2064322E19C036FE06C08AE0989ECD
:100C8000200D1124922E11C0EAE02E9E200D112479
:100C9000222EF32DF0623F2E08C08C3621F4832DD6
:100CA0008068382E02C0883641F4F70193FD8591A3
:100CB00093FF81917F018111B3CF982F9F7D955430
:100CC000933028F40C5F1F4F9FE399830DC0833648
:100CD00031F0833771F0833509F055C020C0F80139
:100CE000808189830E5F1F4F88248394912C530148
:100CF00012C02801F2E04F0E511CF801A080B18013
:100D000036FE03C0692D70E002C06FEF7FEFC501B2
:100D10004ED14C018201F32DFF773F2E15C02801E3
:100D200022E0420E511CF801A080B18036FE03C0C3
:100D3000692D70E002C06FEF7FEFC5012DD14C012E
:100D4000F32DF0683F2E820133FC19C0822D90E014
:100D500088169906A0F4B60180E290E033D12A9477
:100D6000F5CFF50137FC859137FE81915F01B60122
:100D700090E028D121102A9421E0821A9108811450
:100D8000910479F7E1C0843611F0893639F5F8011C
:100D900037FE07C060817181828193810C5F1F4F94
:100DA00008C060817181072E000C880B990B0E5FC3
:100DB0001F4FF32DFF763F2E97FF09C0909580952A
:100DC000709561957F4F8F4F9F4FF0683F2E2AE0BF
:100DD00030E0A30133D1882E861844C0853731F422
:100DE000232D2F7EB22E2AE030E025C0932D997F4F
:100DF000B92E8F36C1F018F4883579F0AEC080373F
:100E000019F0883721F0A9C0E92FE061BE2EB4FEA9
:100E10000DC0FB2DF460BF2E09C034FE0AC0292F7F
:100E20002660B22E06C028E030E005C020E130E0A8
:100E300002C020E132E0F801B7FE07C06081718195
:100E4000828193810C5F1F4F06C06081718180E0B9
:100E500090E00E5F1F4FA301F1D0882E8618FB2D66
:100E6000FF773F2E36FE0DC0232D2E7FA22E891434
:100E700058F434FE0BC032FC09C0832D8E7EA82EA0
:100E800005C0B82CA32C03C0B82C01C0B92CA4FEFB
:100E90000FC0FE01E80DF11D8081803321F49A2DF1
:100EA000997EA92E09C0A2FE06C0B394B39404C0D3
:100EB0008A2D867809F0B394A3FC10C0A0FE06C06A
:100EC000B21480F4280C922C9B180DC0B21458F464
:100ED000B60180E290E076D0B394F8CFB21418F463
:100EE0002B1802C0982C212CA4FE0FC0B60180E361
:100EF00090E068D0A2FE16C0A1FC03C088E790E095
:100F000002C088E590E0B6010CC08A2D867851F0C9
:100F1000A1FE02C08BE201C080E2A7FC8DE2B60117
:100F200090E050D0891430F4B60180E390E04AD0CC
:100F30009A94F8CF8A94F301E80DF11D8081B601EF
:100F400090E040D08110F6CF222009F44ECEB601B9
:100F500080E290E037D02A94F7CFF601868197811E
:100F600002C08FEF9FEF2B960FB6F894DEBF0FBE37
:100F7000CDBFDF91CF911F910F91FF90EF90DF9048
:100F8000CF90BF90AF909F908F907F906F905F9029
:100F90004F903F902F900895FC0105906150704054
:100FA0000110D8F7809590958E0F9F1F0895FC0132
:100FB0006150704001900110D8F7809590958E0F88
:100FC0009F1F08950F931F93CF93DF93FB012381FE
:100FD00021FD03C08FEF9FEF2CC022FF16C046817A
:100FE0005781248135814217530744F4A081B18190
:100FF0009D012F5F3F4F318320838C932681378162
:101000002F5F3F4F3783268314C08B01EC01FB0118
:101010000084F185E02D1995892BE1F6D80116960B
:101020008D919C911797019617969C938E93169786
:10103000CE01DF91CF911F910F910895FA01AA2758
:10104000283051F1203181F1E8946F936E7F6E5F0B
:101050007F4F8F4F9F4FAF4FB1E03ED0B4E03CD0B9
:10106000670F781F891F9A1FA11D680F791F8A1F9C
:10107000911DA11D6A0F711D811D911DA11D20D003
:1010800009F468943F912AE0269F11243019305DBD
:101090003193DEF6CF010895462F4770405D4193AE
:1010A000B3E00FD0C9F7F6CF462F4F70405D4A33FB
:1010B00018F0495D31FD4052419302D0A9F7EACFC3
:1010C000B4E0A6959795879577956795BA95C9F7F2
:1010D00000976105710508959B01AC010A2E0694E5
:1010E0005795479537952795BA95C9F7620F731F9E
:0C10F000841F951FA01D0895F894FFCFE9
:1010FC0068656C6C6F0A005258206572726F720AC8
:10110C0000496E76616C696420436F6D6D616E642D
:02111C000A00C7
:00000001FF
